{
  "contractName": "Ad",
  "abi": [
    {
      "inputs": [],
      "stateMutability": "nonpayable",
      "type": "constructor"
    },
    {
      "anonymous": false,
      "inputs": [
        {
          "indexed": true,
          "internalType": "address",
          "name": "owner",
          "type": "address"
        },
        {
          "indexed": true,
          "internalType": "address",
          "name": "approved",
          "type": "address"
        },
        {
          "indexed": true,
          "internalType": "uint256",
          "name": "tokenId",
          "type": "uint256"
        }
      ],
      "name": "Approval",
      "type": "event"
    },
    {
      "anonymous": false,
      "inputs": [
        {
          "indexed": true,
          "internalType": "address",
          "name": "owner",
          "type": "address"
        },
        {
          "indexed": true,
          "internalType": "address",
          "name": "operator",
          "type": "address"
        },
        {
          "indexed": false,
          "internalType": "bool",
          "name": "approved",
          "type": "bool"
        }
      ],
      "name": "ApprovalForAll",
      "type": "event"
    },
    {
      "anonymous": false,
      "inputs": [
        {
          "indexed": true,
          "internalType": "address",
          "name": "previousOwner",
          "type": "address"
        },
        {
          "indexed": true,
          "internalType": "address",
          "name": "newOwner",
          "type": "address"
        }
      ],
      "name": "OwnershipTransferred",
      "type": "event"
    },
    {
      "anonymous": false,
      "inputs": [
        {
          "indexed": true,
          "internalType": "address",
          "name": "from",
          "type": "address"
        },
        {
          "indexed": true,
          "internalType": "address",
          "name": "to",
          "type": "address"
        },
        {
          "indexed": true,
          "internalType": "uint256",
          "name": "tokenId",
          "type": "uint256"
        }
      ],
      "name": "Transfer",
      "type": "event"
    },
    {
      "inputs": [
        {
          "internalType": "uint256",
          "name": "",
          "type": "uint256"
        }
      ],
      "name": "ads",
      "outputs": [
        {
          "internalType": "address payable",
          "name": "adCreator",
          "type": "address"
        },
        {
          "internalType": "string",
          "name": "adName",
          "type": "string"
        },
        {
          "internalType": "string",
          "name": "adAddress",
          "type": "string"
        },
        {
          "internalType": "uint256",
          "name": "adPrice",
          "type": "uint256"
        },
        {
          "internalType": "bool",
          "name": "adOnSale",
          "type": "bool"
        },
        {
          "internalType": "bool",
          "name": "adIsSold",
          "type": "bool"
        },
        {
          "internalType": "address",
          "name": "adBuyer",
          "type": "address"
        },
        {
          "internalType": "address",
          "name": "adPropertyOwner",
          "type": "address"
        }
      ],
      "stateMutability": "view",
      "type": "function"
    },
    {
      "inputs": [
        {
          "internalType": "address",
          "name": "to",
          "type": "address"
        },
        {
          "internalType": "uint256",
          "name": "tokenId",
          "type": "uint256"
        }
      ],
      "name": "approve",
      "outputs": [],
      "stateMutability": "nonpayable",
      "type": "function"
    },
    {
      "inputs": [
        {
          "internalType": "address",
          "name": "owner",
          "type": "address"
        }
      ],
      "name": "balanceOf",
      "outputs": [
        {
          "internalType": "uint256",
          "name": "",
          "type": "uint256"
        }
      ],
      "stateMutability": "view",
      "type": "function"
    },
    {
      "inputs": [],
      "name": "baseURI",
      "outputs": [
        {
          "internalType": "string",
          "name": "",
          "type": "string"
        }
      ],
      "stateMutability": "view",
      "type": "function"
    },
    {
      "inputs": [
        {
          "internalType": "uint256",
          "name": "tokenId",
          "type": "uint256"
        }
      ],
      "name": "burn",
      "outputs": [],
      "stateMutability": "nonpayable",
      "type": "function"
    },
    {
      "inputs": [
        {
          "internalType": "uint256",
          "name": "tokenId",
          "type": "uint256"
        }
      ],
      "name": "getApproved",
      "outputs": [
        {
          "internalType": "address",
          "name": "",
          "type": "address"
        }
      ],
      "stateMutability": "view",
      "type": "function"
    },
    {
      "inputs": [
        {
          "internalType": "address",
          "name": "owner",
          "type": "address"
        },
        {
          "internalType": "address",
          "name": "operator",
          "type": "address"
        }
      ],
      "name": "isApprovedForAll",
      "outputs": [
        {
          "internalType": "bool",
          "name": "",
          "type": "bool"
        }
      ],
      "stateMutability": "view",
      "type": "function"
    },
    {
      "inputs": [],
      "name": "name",
      "outputs": [
        {
          "internalType": "string",
          "name": "",
          "type": "string"
        }
      ],
      "stateMutability": "view",
      "type": "function"
    },
    {
      "inputs": [],
      "name": "owner",
      "outputs": [
        {
          "internalType": "address",
          "name": "",
          "type": "address"
        }
      ],
      "stateMutability": "view",
      "type": "function"
    },
    {
      "inputs": [
        {
          "internalType": "uint256",
          "name": "tokenId",
          "type": "uint256"
        }
      ],
      "name": "ownerOf",
      "outputs": [
        {
          "internalType": "address",
          "name": "",
          "type": "address"
        }
      ],
      "stateMutability": "view",
      "type": "function"
    },
    {
      "inputs": [],
      "name": "renounceOwnership",
      "outputs": [],
      "stateMutability": "nonpayable",
      "type": "function"
    },
    {
      "inputs": [
        {
          "internalType": "address",
          "name": "from",
          "type": "address"
        },
        {
          "internalType": "address",
          "name": "to",
          "type": "address"
        },
        {
          "internalType": "uint256",
          "name": "tokenId",
          "type": "uint256"
        }
      ],
      "name": "safeTransferFrom",
      "outputs": [],
      "stateMutability": "nonpayable",
      "type": "function"
    },
    {
      "inputs": [
        {
          "internalType": "address",
          "name": "from",
          "type": "address"
        },
        {
          "internalType": "address",
          "name": "to",
          "type": "address"
        },
        {
          "internalType": "uint256",
          "name": "tokenId",
          "type": "uint256"
        },
        {
          "internalType": "bytes",
          "name": "_data",
          "type": "bytes"
        }
      ],
      "name": "safeTransferFrom",
      "outputs": [],
      "stateMutability": "nonpayable",
      "type": "function"
    },
    {
      "inputs": [
        {
          "internalType": "address",
          "name": "operator",
          "type": "address"
        },
        {
          "internalType": "bool",
          "name": "approved",
          "type": "bool"
        }
      ],
      "name": "setApprovalForAll",
      "outputs": [],
      "stateMutability": "nonpayable",
      "type": "function"
    },
    {
      "inputs": [
        {
          "internalType": "bytes4",
          "name": "interfaceId",
          "type": "bytes4"
        }
      ],
      "name": "supportsInterface",
      "outputs": [
        {
          "internalType": "bool",
          "name": "",
          "type": "bool"
        }
      ],
      "stateMutability": "view",
      "type": "function"
    },
    {
      "inputs": [],
      "name": "symbol",
      "outputs": [
        {
          "internalType": "string",
          "name": "",
          "type": "string"
        }
      ],
      "stateMutability": "view",
      "type": "function"
    },
    {
      "inputs": [
        {
          "internalType": "uint256",
          "name": "index",
          "type": "uint256"
        }
      ],
      "name": "tokenByIndex",
      "outputs": [
        {
          "internalType": "uint256",
          "name": "",
          "type": "uint256"
        }
      ],
      "stateMutability": "view",
      "type": "function"
    },
    {
      "inputs": [
        {
          "internalType": "address",
          "name": "owner",
          "type": "address"
        },
        {
          "internalType": "uint256",
          "name": "index",
          "type": "uint256"
        }
      ],
      "name": "tokenOfOwnerByIndex",
      "outputs": [
        {
          "internalType": "uint256",
          "name": "",
          "type": "uint256"
        }
      ],
      "stateMutability": "view",
      "type": "function"
    },
    {
      "inputs": [
        {
          "internalType": "uint256",
          "name": "tokenId",
          "type": "uint256"
        }
      ],
      "name": "tokenURI",
      "outputs": [
        {
          "internalType": "string",
          "name": "",
          "type": "string"
        }
      ],
      "stateMutability": "view",
      "type": "function"
    },
    {
      "inputs": [],
      "name": "totalSupply",
      "outputs": [
        {
          "internalType": "uint256",
          "name": "",
          "type": "uint256"
        }
      ],
      "stateMutability": "view",
      "type": "function"
    },
    {
      "inputs": [
        {
          "internalType": "address",
          "name": "from",
          "type": "address"
        },
        {
          "internalType": "address",
          "name": "to",
          "type": "address"
        },
        {
          "internalType": "uint256",
          "name": "tokenId",
          "type": "uint256"
        }
      ],
      "name": "transferFrom",
      "outputs": [],
      "stateMutability": "nonpayable",
      "type": "function"
    },
    {
      "inputs": [
        {
          "internalType": "address",
          "name": "newOwner",
          "type": "address"
        }
      ],
      "name": "transferOwnership",
      "outputs": [],
      "stateMutability": "nonpayable",
      "type": "function"
    },
    {
      "inputs": [
        {
          "internalType": "string",
          "name": "_adName",
          "type": "string"
        },
        {
          "internalType": "string",
          "name": "_adAddress",
          "type": "string"
        },
        {
          "internalType": "uint256",
          "name": "_adPrice",
          "type": "uint256"
        }
      ],
      "name": "mint",
      "outputs": [],
      "stateMutability": "nonpayable",
      "type": "function"
    },
    {
      "inputs": [
        {
          "internalType": "uint256",
          "name": "_ad",
          "type": "uint256"
        },
        {
          "internalType": "string",
          "name": "_imageLink",
          "type": "string"
        }
      ],
      "name": "adImageToAd",
      "outputs": [],
      "stateMutability": "nonpayable",
      "type": "function"
    },
    {
      "inputs": [
        {
          "internalType": "uint256",
          "name": "_ad",
          "type": "uint256"
        },
        {
          "internalType": "string",
          "name": "_adName",
          "type": "string"
        },
        {
          "internalType": "string",
          "name": "_adAddress",
          "type": "string"
        },
        {
          "internalType": "uint256",
          "name": "_adPrice",
          "type": "uint256"
        }
      ],
      "name": "updateAd",
      "outputs": [],
      "stateMutability": "nonpayable",
      "type": "function"
    },
    {
      "inputs": [
        {
          "internalType": "uint256",
          "name": "_ad",
          "type": "uint256"
        }
      ],
      "name": "buyAd",
      "outputs": [],
      "stateMutability": "payable",
      "type": "function"
    },
    {
      "inputs": [
        {
          "internalType": "uint256",
          "name": "_ad",
          "type": "uint256"
        }
      ],
      "name": "changeOnSaleStatus",
      "outputs": [],
      "stateMutability": "nonpayable",
      "type": "function"
    },
    {
      "inputs": [
        {
          "internalType": "uint8",
          "name": "_commissionPercentage",
          "type": "uint8"
        }
      ],
      "name": "changeComissionPercentage",
      "outputs": [],
      "stateMutability": "nonpayable",
      "type": "function"
    },
    {
      "inputs": [
        {
          "internalType": "uint256",
          "name": "_ad",
          "type": "uint256"
        }
      ],
      "name": "deleteAd",
      "outputs": [],
      "stateMutability": "nonpayable",
      "type": "function"
    },
    {
      "inputs": [
        {
          "internalType": "address",
          "name": "_from",
          "type": "address"
        },
        {
          "internalType": "address",
          "name": "_to",
          "type": "address"
        },
        {
          "internalType": "uint256",
          "name": "_tokenId",
          "type": "uint256"
        }
      ],
      "name": "changeTokenOwnership",
      "outputs": [],
      "stateMutability": "payable",
      "type": "function"
    },
    {
      "inputs": [],
      "name": "getNumberofAds",
      "outputs": [
        {
          "internalType": "uint256",
          "name": "",
          "type": "uint256"
        }
      ],
      "stateMutability": "view",
      "type": "function"
    },
    {
      "inputs": [
        {
          "internalType": "address",
          "name": "_owner",
          "type": "address"
        },
        {
          "internalType": "uint256",
          "name": "_index",
          "type": "uint256"
        }
      ],
      "name": "getAdsOfOwnerByIndex",
      "outputs": [
        {
          "internalType": "uint256",
          "name": "tokenId",
          "type": "uint256"
        }
      ],
      "stateMutability": "view",
      "type": "function"
    },
    {
      "inputs": [
        {
          "internalType": "uint256",
          "name": "_index",
          "type": "uint256"
        }
      ],
      "name": "getAdByIndex",
      "outputs": [
        {
          "internalType": "uint256",
          "name": "",
          "type": "uint256"
        }
      ],
      "stateMutability": "view",
      "type": "function"
    }
  ],
  "bytecode": "0x6080604052600a600d60006101000a81548160ff021916908360ff1602179055503480156200002d57600080fd5b506040518060400160405280600281526020017f41640000000000000000000000000000000000000000000000000000000000008152506040518060400160405280600281526020017f4144000000000000000000000000000000000000000000000000000000000000815250620000cb7f01ffc9a7000000000000000000000000000000000000000000000000000000006200024960201b60201c565b8160069080519060200190620000e392919062000329565b508060079080519060200190620000fc92919062000329565b506200012e7f80ac58cd000000000000000000000000000000000000000000000000000000006200024960201b60201c565b6200015f7f5b5e139f000000000000000000000000000000000000000000000000000000006200024960201b60201c565b620001907f780e9d63000000000000000000000000000000000000000000000000000000006200024960201b60201c565b50506000620001a46200032160201b60201c565b905080600a60006101000a81548173ffffffffffffffffffffffffffffffffffffffff021916908373ffffffffffffffffffffffffffffffffffffffff1602179055508073ffffffffffffffffffffffffffffffffffffffff16600073ffffffffffffffffffffffffffffffffffffffff167f8be0079c531659141344cd1fd0a4f28419497f9722a3daafe3b4186f6b6457e060405160405180910390a350620004b3565b63ffffffff60e01b817bffffffffffffffffffffffffffffffffffffffffffffffffffffffff19161415620002b5576040517f08c379a0000000000000000000000000000000000000000000000000000000008152600401620002ac906200041b565b60405180910390fd5b6001600080837bffffffffffffffffffffffffffffffffffffffffffffffffffffffff19167bffffffffffffffffffffffffffffffffffffffffffffffffffffffff1916815260200190815260200160002060006101000a81548160ff02191690831515021790555050565b600033905090565b82805462000337906200044e565b90600052602060002090601f0160209004810192826200035b5760008555620003a7565b82601f106200037657805160ff1916838001178555620003a7565b82800160010185558215620003a7579182015b82811115620003a657825182559160200191906001019062000389565b5b509050620003b69190620003ba565b5090565b5b80821115620003d5576000816000905550600101620003bb565b5090565b6000620003e8601c836200043d565b91507f4552433136353a20696e76616c696420696e74657266616365206964000000006000830152602082019050919050565b600060208201905081810360008301526200043681620003d9565b9050919050565b600082825260208201905092915050565b600060028204905060018216806200046757607f821691505b602082108114156200047e576200047d62000484565b5b50919050565b7f4e487b7100000000000000000000000000000000000000000000000000000000600052602260045260246000fd5b614f3b80620004c36000396000f3fe6080604052600436106101ee5760003560e01c80636c0360eb1161010d578063b88d4fde116100a0578063d5be41531161006f578063d5be415314610724578063d88db18914610740578063e3aad86e1461077d578063e985e9c514610799578063f2fde38b146107d6576101ee565b8063b88d4fde1461066c578063ba3e04a514610695578063c87b56dd146106be578063d41d9a27146106fb576101ee565b806394f4c4c2116100dc57806394f4c4c2146105c457806395d89b41146105ef578063a22cb4651461061a578063b6b2304914610643576101ee565b80636c0360eb1461051a57806370a0823114610545578063715018a6146105825780638da5cb5b14610599576101ee565b80631946b1651161018557806342966c681161015457806342966c681461043a5780634f6ccce7146104635780636352211e146104a057806363cfa0aa146104dd576101ee565b80631946b1651461038257806323b872dd146103ab5780632f745c59146103d457806342842e0e14610411576101ee565b80630f93d695116101c15780630f93d695146102c157806311a7a4c0146102ea57806318160ddd1461032e5780631864001a14610359576101ee565b806301ffc9a7146101f357806306fdde0314610230578063081812fc1461025b578063095ea7b314610298575b600080fd5b3480156101ff57600080fd5b5061021a60048036038101906102159190613a5e565b6107ff565b604051610227919061470a565b60405180910390f35b34801561023c57600080fd5b50610245610866565b6040516102529190614725565b60405180910390f35b34801561026757600080fd5b50610282600480360381019061027d9190613b2f565b6108f8565b60405161028f9190614617565b60405180910390f35b3480156102a457600080fd5b506102bf60048036038101906102ba9190613a22565b61097d565b005b3480156102cd57600080fd5b506102e860048036038101906102e39190613b2f565b610a95565b005b3480156102f657600080fd5b50610311600480360381019061030c9190613b2f565b610bca565b604051610325989796959493929190614632565b60405180910390f35b34801561033a57600080fd5b50610343610d9c565b6040516103509190614a47565b60405180910390f35b34801561036557600080fd5b50610380600480360381019061037b9190613b2f565b610dad565b005b34801561038e57600080fd5b506103a960048036038101906103a49190613b58565b610f1a565b005b3480156103b757600080fd5b506103d260048036038101906103cd919061391c565b610fe4565b005b3480156103e057600080fd5b506103fb60048036038101906103f69190613a22565b611044565b6040516104089190614a47565b60405180910390f35b34801561041d57600080fd5b506104386004803603810190610433919061391c565b61109f565b005b34801561044657600080fd5b50610461600480360381019061045c9190613b2f565b6110bf565b005b34801561046f57600080fd5b5061048a60048036038101906104859190613b2f565b61111b565b6040516104979190614a47565b60405180910390f35b3480156104ac57600080fd5b506104c760048036038101906104c29190613b2f565b61113e565b6040516104d49190614617565b60405180910390f35b3480156104e957600080fd5b5061050460048036038101906104ff9190613b2f565b611175565b6040516105119190614a47565b60405180910390f35b34801561052657600080fd5b5061052f611187565b60405161053c9190614725565b60405180910390f35b34801561055157600080fd5b5061056c600480360381019061056791906138b7565b611219565b6040516105799190614a47565b60405180910390f35b34801561058e57600080fd5b506105976112d8565b005b3480156105a557600080fd5b506105ae611415565b6040516105bb9190614617565b60405180910390f35b3480156105d057600080fd5b506105d961143f565b6040516105e69190614a47565b60405180910390f35b3480156105fb57600080fd5b5061060461144e565b6040516106119190614725565b60405180910390f35b34801561062657600080fd5b50610641600480360381019061063c91906139e6565b6114e0565b005b34801561064f57600080fd5b5061066a60048036038101906106659190613bac565b611661565b005b34801561067857600080fd5b50610693600480360381019061068e919061396b565b61174e565b005b3480156106a157600080fd5b506106bc60048036038101906106b79190613c3f565b6117b0565b005b3480156106ca57600080fd5b506106e560048036038101906106e09190613b2f565b6118a1565b6040516106f29190614725565b60405180910390f35b34801561070757600080fd5b50610722600480360381019061071d9190613ab0565b611a14565b005b61073e60048036038101906107399190613b2f565b611ccc565b005b34801561074c57600080fd5b5061076760048036038101906107629190613a22565b611fb0565b6040516107749190614a47565b60405180910390f35b6107976004803603810190610792919061391c565b611fc4565b005b3480156107a557600080fd5b506107c060048036038101906107bb91906138e0565b6120b7565b6040516107cd919061470a565b60405180910390f35b3480156107e257600080fd5b506107fd60048036038101906107f891906138b7565b61214b565b005b6000806000837bffffffffffffffffffffffffffffffffffffffffffffffffffffffff19167bffffffffffffffffffffffffffffffffffffffffffffffffffffffff1916815260200190815260200160002060009054906101000a900460ff169050919050565b60606006805461087590614cf0565b80601f01602080910402602001604051908101604052809291908181526020018280546108a190614cf0565b80156108ee5780601f106108c3576101008083540402835291602001916108ee565b820191906000526020600020905b8154815290600101906020018083116108d157829003601f168201915b5050505050905090565b6000610903826122f7565b610942576040517f08c379a0000000000000000000000000000000000000000000000000000000008152600401610939906148e7565b60405180910390fd5b6004600083815260200190815260200160002060009054906101000a900473ffffffffffffffffffffffffffffffffffffffff169050919050565b60006109888261113e565b90508073ffffffffffffffffffffffffffffffffffffffff168373ffffffffffffffffffffffffffffffffffffffff1614156109f9576040517f08c379a00000000000000000000000000000000000000000000000000000000081526004016109f0906149c7565b60405180910390fd5b8073ffffffffffffffffffffffffffffffffffffffff16610a18612314565b73ffffffffffffffffffffffffffffffffffffffff161480610a475750610a4681610a41612314565b6120b7565b5b610a86576040517f08c379a0000000000000000000000000000000000000000000000000000000008152600401610a7d90614827565b60405180910390fd5b610a90838361231c565b505050565b610a9e8161113e565b73ffffffffffffffffffffffffffffffffffffffff163373ffffffffffffffffffffffffffffffffffffffff1614610b0b576040517f08c379a0000000000000000000000000000000000000000000000000000000008152600401610b0290614947565b60405180910390fd5b60001515600c600083815260200190815260200160002060040160019054906101000a900460ff16151514610b75576040517f08c379a0000000000000000000000000000000000000000000000000000000008152600401610b6c906149a7565b60405180910390fd5b600c600082815260200190815260200160002060040160009054906101000a900460ff1615600c600083815260200190815260200160002060040160006101000a81548160ff02191690831515021790555050565b600c6020528060005260406000206000915090508060000160009054906101000a900473ffffffffffffffffffffffffffffffffffffffff1690806001018054610c1390614cf0565b80601f0160208091040260200160405190810160405280929190818152602001828054610c3f90614cf0565b8015610c8c5780601f10610c6157610100808354040283529160200191610c8c565b820191906000526020600020905b815481529060010190602001808311610c6f57829003601f168201915b505050505090806002018054610ca190614cf0565b80601f0160208091040260200160405190810160405280929190818152602001828054610ccd90614cf0565b8015610d1a5780601f10610cef57610100808354040283529160200191610d1a565b820191906000526020600020905b815481529060010190602001808311610cfd57829003601f168201915b5050505050908060030154908060040160009054906101000a900460ff16908060040160019054906101000a900460ff16908060040160029054906101000a900473ffffffffffffffffffffffffffffffffffffffff16908060050160009054906101000a900473ffffffffffffffffffffffffffffffffffffffff16905088565b6000610da860026123d5565b905090565b610db68161113e565b73ffffffffffffffffffffffffffffffffffffffff163373ffffffffffffffffffffffffffffffffffffffff1614610e23576040517f08c379a0000000000000000000000000000000000000000000000000000000008152600401610e1a90614947565b60405180910390fd5b610e2c816110bf565b600c6000828152602001908152602001600020600080820160006101000a81549073ffffffffffffffffffffffffffffffffffffffff0219169055600182016000610e7791906135e1565b600282016000610e8791906135e1565b60038201600090556004820160006101000a81549060ff02191690556004820160016101000a81549060ff02191690556004820160026101000a81549073ffffffffffffffffffffffffffffffffffffffff02191690556005820160006101000a81549073ffffffffffffffffffffffffffffffffffffffff0219169055600682016000610f159190613621565b505050565b610f238261113e565b73ffffffffffffffffffffffffffffffffffffffff163373ffffffffffffffffffffffffffffffffffffffff1614610f90576040517f08c379a0000000000000000000000000000000000000000000000000000000008152600401610f8790614947565b60405180910390fd5b600c600083815260200190815260200160002060060181908060018154018082558091505060019003906000526020600020016000909190919091509080519060200190610fdf929190613642565b505050565b610ff5610fef612314565b826123ea565b611034576040517f08c379a000000000000000000000000000000000000000000000000000000000815260040161102b90614a07565b60405180910390fd5b61103f8383836124c8565b505050565b600061109782600160008673ffffffffffffffffffffffffffffffffffffffff1673ffffffffffffffffffffffffffffffffffffffff1681526020019081526020016000206126df90919063ffffffff16565b905092915050565b6110ba8383836040518060200160405280600081525061174e565b505050565b6110d06110ca612314565b826123ea565b61110f576040517f08c379a000000000000000000000000000000000000000000000000000000000815260040161110690614a27565b60405180910390fd5b611118816126f9565b50565b60008061113283600261282b90919063ffffffff16565b50905080915050919050565b600061116e82604051806060016040528060298152602001614edd6029913960026128579092919063ffffffff16565b9050919050565b60006111808261111b565b9050919050565b60606009805461119690614cf0565b80601f01602080910402602001604051908101604052809291908181526020018280546111c290614cf0565b801561120f5780601f106111e45761010080835404028352916020019161120f565b820191906000526020600020905b8154815290600101906020018083116111f257829003601f168201915b5050505050905090565b60008073ffffffffffffffffffffffffffffffffffffffff168273ffffffffffffffffffffffffffffffffffffffff16141561128a576040517f08c379a000000000000000000000000000000000000000000000000000000000815260040161128190614867565b60405180910390fd5b6112d1600160008473ffffffffffffffffffffffffffffffffffffffff1673ffffffffffffffffffffffffffffffffffffffff168152602001908152602001600020612876565b9050919050565b6112e0612314565b73ffffffffffffffffffffffffffffffffffffffff166112fe611415565b73ffffffffffffffffffffffffffffffffffffffff1614611354576040517f08c379a000000000000000000000000000000000000000000000000000000000815260040161134b90614907565b60405180910390fd5b600073ffffffffffffffffffffffffffffffffffffffff16600a60009054906101000a900473ffffffffffffffffffffffffffffffffffffffff1673ffffffffffffffffffffffffffffffffffffffff167f8be0079c531659141344cd1fd0a4f28419497f9722a3daafe3b4186f6b6457e060405160405180910390a36000600a60006101000a81548173ffffffffffffffffffffffffffffffffffffffff021916908373ffffffffffffffffffffffffffffffffffffffff160217905550565b6000600a60009054906101000a900473ffffffffffffffffffffffffffffffffffffffff16905090565b6000611449610d9c565b905090565b60606007805461145d90614cf0565b80601f016020809104026020016040519081016040528092919081815260200182805461148990614cf0565b80156114d65780601f106114ab576101008083540402835291602001916114d6565b820191906000526020600020905b8154815290600101906020018083116114b957829003601f168201915b5050505050905090565b6114e8612314565b73ffffffffffffffffffffffffffffffffffffffff168273ffffffffffffffffffffffffffffffffffffffff161415611556576040517f08c379a000000000000000000000000000000000000000000000000000000000815260040161154d906147e7565b60405180910390fd5b8060056000611563612314565b73ffffffffffffffffffffffffffffffffffffffff1673ffffffffffffffffffffffffffffffffffffffff16815260200190815260200160002060008473ffffffffffffffffffffffffffffffffffffffff1673ffffffffffffffffffffffffffffffffffffffff16815260200190815260200160002060006101000a81548160ff0219169083151502179055508173ffffffffffffffffffffffffffffffffffffffff16611610612314565b73ffffffffffffffffffffffffffffffffffffffff167f17307eab39ab6107e8899845ad3d59bd9653f200f220920489ca2b5937696c3183604051611655919061470a565b60405180910390a35050565b61166a8461113e565b73ffffffffffffffffffffffffffffffffffffffff163373ffffffffffffffffffffffffffffffffffffffff16146116d7576040517f08c379a00000000000000000000000000000000000000000000000000000000081526004016116ce90614947565b60405180910390fd5b82600c60008681526020019081526020016000206001019080519060200190611701929190613642565b5081600c6000868152602001908152602001600020600201908051906020019061172c929190613642565b5080600c60008681526020019081526020016000206003018190555050505050565b61175f611759612314565b836123ea565b61179e576040517f08c379a000000000000000000000000000000000000000000000000000000000815260040161179590614a07565b60405180910390fd5b6117aa8484848461288b565b50505050565b6117b8612314565b73ffffffffffffffffffffffffffffffffffffffff166117d6611415565b73ffffffffffffffffffffffffffffffffffffffff161461182c576040517f08c379a000000000000000000000000000000000000000000000000000000000815260040161182390614907565b60405180910390fd5b60008160ff1610158015611844575060648160ff1611155b611883576040517f08c379a000000000000000000000000000000000000000000000000000000000815260040161187a90614927565b60405180910390fd5b80600d60006101000a81548160ff021916908360ff16021790555050565b60606118ac826122f7565b6118eb576040517f08c379a00000000000000000000000000000000000000000000000000000000081526004016118e290614987565b60405180910390fd5b600060086000848152602001908152602001600020805461190b90614cf0565b80601f016020809104026020016040519081016040528092919081815260200182805461193790614cf0565b80156119845780601f1061195957610100808354040283529160200191611984565b820191906000526020600020905b81548152906001019060200180831161196757829003601f168201915b505050505090506000611995611187565b90506000815114156119ab578192505050611a0f565b6000825111156119e05780826040516020016119c89291906145f3565b60405160208183030381529060405292505050611a0f565b806119ea856128e7565b6040516020016119fb9291906145f3565b604051602081830303815290604052925050505b919050565b611a1e600b612a9a565b6000611a2a600b612ab9565b905060006040518061012001604052803373ffffffffffffffffffffffffffffffffffffffff168152602001868152602001858152602001848152602001600015158152602001600015158152602001600073ffffffffffffffffffffffffffffffffffffffff1681526020013373ffffffffffffffffffffffffffffffffffffffff168152602001600067ffffffffffffffff811115611af4577f4e487b7100000000000000000000000000000000000000000000000000000000600052604160045260246000fd5b604051908082528060200260200182016040528015611b2757816020015b6060815260200190600190039081611b125790505b50815250905080600c600084815260200190815260200160002060008201518160000160006101000a81548173ffffffffffffffffffffffffffffffffffffffff021916908373ffffffffffffffffffffffffffffffffffffffff1602179055506020820151816001019080519060200190611ba4929190613642565b506040820151816002019080519060200190611bc1929190613642565b506060820151816003015560808201518160040160006101000a81548160ff02191690831515021790555060a08201518160040160016101000a81548160ff02191690831515021790555060c08201518160040160026101000a81548173ffffffffffffffffffffffffffffffffffffffff021916908373ffffffffffffffffffffffffffffffffffffffff16021790555060e08201518160050160006101000a81548173ffffffffffffffffffffffffffffffffffffffff021916908373ffffffffffffffffffffffffffffffffffffffff160217905550610100820151816006019080519060200190611cb79291906136c8565b50905050611cc53383612ac7565b5050505050565b611cd58161113e565b73ffffffffffffffffffffffffffffffffffffffff163373ffffffffffffffffffffffffffffffffffffffff161415611d43576040517f08c379a0000000000000000000000000000000000000000000000000000000008152600401611d3a906149e7565b60405180910390fd5b600c6000828152602001908152602001600020600301543414611d9b576040517f08c379a0000000000000000000000000000000000000000000000000000000008152600401611d92906148c7565b60405180910390fd5b600c600082815260200190815260200160002060000160009054906101000a900473ffffffffffffffffffffffffffffffffffffffff1673ffffffffffffffffffffffffffffffffffffffff166108fc600d60009054906101000a900460ff1660ff1634611e099190614b8c565b34611e149190614bbd565b9081150290604051600060405180830381858888f19350505050611e3757600080fd5b3073ffffffffffffffffffffffffffffffffffffffff166108fc600d60009054906101000a900460ff1660ff1634611e6f9190614b8c565b9081150290604051600060405180830381858888f19350505050611e9257600080fd5b33600c600083815260200190815260200160002060040160026101000a81548173ffffffffffffffffffffffffffffffffffffffff021916908373ffffffffffffffffffffffffffffffffffffffff16021790555033600c600083815260200190815260200160002060050160006101000a81548173ffffffffffffffffffffffffffffffffffffffff021916908373ffffffffffffffffffffffffffffffffffffffff1602179055506000600c600083815260200190815260200160002060040160006101000a81548160ff0219169083151502179055506001600c600083815260200190815260200160002060040160016101000a81548160ff021916908315150217905550611fad611fa68261113e565b338361109f565b50565b6000611fbc8383611044565b905092915050565b611fcd8161113e565b73ffffffffffffffffffffffffffffffffffffffff168373ffffffffffffffffffffffffffffffffffffffff1614801561206857508273ffffffffffffffffffffffffffffffffffffffff163373ffffffffffffffffffffffffffffffffffffffff16148061206757508173ffffffffffffffffffffffffffffffffffffffff163373ffffffffffffffffffffffffffffffffffffffff16145b5b6120a7576040517f08c379a000000000000000000000000000000000000000000000000000000000815260040161209e90614847565b60405180910390fd5b6120b283838361109f565b505050565b6000600560008473ffffffffffffffffffffffffffffffffffffffff1673ffffffffffffffffffffffffffffffffffffffff16815260200190815260200160002060008373ffffffffffffffffffffffffffffffffffffffff1673ffffffffffffffffffffffffffffffffffffffff16815260200190815260200160002060009054906101000a900460ff16905092915050565b612153612314565b73ffffffffffffffffffffffffffffffffffffffff16612171611415565b73ffffffffffffffffffffffffffffffffffffffff16146121c7576040517f08c379a00000000000000000000000000000000000000000000000000000000081526004016121be90614907565b60405180910390fd5b600073ffffffffffffffffffffffffffffffffffffffff168173ffffffffffffffffffffffffffffffffffffffff161415612237576040517f08c379a000000000000000000000000000000000000000000000000000000000815260040161222e90614787565b60405180910390fd5b8073ffffffffffffffffffffffffffffffffffffffff16600a60009054906101000a900473ffffffffffffffffffffffffffffffffffffffff1673ffffffffffffffffffffffffffffffffffffffff167f8be0079c531659141344cd1fd0a4f28419497f9722a3daafe3b4186f6b6457e060405160405180910390a380600a60006101000a81548173ffffffffffffffffffffffffffffffffffffffff021916908373ffffffffffffffffffffffffffffffffffffffff16021790555050565b600061230d826002612c5590919063ffffffff16565b9050919050565b600033905090565b816004600083815260200190815260200160002060006101000a81548173ffffffffffffffffffffffffffffffffffffffff021916908373ffffffffffffffffffffffffffffffffffffffff160217905550808273ffffffffffffffffffffffffffffffffffffffff1661238f8361113e565b73ffffffffffffffffffffffffffffffffffffffff167f8c5be1e5ebec7d5bd14f71427d1e84f3dd0314c0f7b2291e5b200ac8c7c3b92560405160405180910390a45050565b60006123e382600001612c6f565b9050919050565b60006123f5826122f7565b612434576040517f08c379a000000000000000000000000000000000000000000000000000000000815260040161242b90614807565b60405180910390fd5b600061243f8361113e565b90508073ffffffffffffffffffffffffffffffffffffffff168473ffffffffffffffffffffffffffffffffffffffff1614806124ae57508373ffffffffffffffffffffffffffffffffffffffff16612496846108f8565b73ffffffffffffffffffffffffffffffffffffffff16145b806124bf57506124be81856120b7565b5b91505092915050565b8273ffffffffffffffffffffffffffffffffffffffff166124e88261113e565b73ffffffffffffffffffffffffffffffffffffffff161461253e576040517f08c379a000000000000000000000000000000000000000000000000000000000815260040161253590614967565b60405180910390fd5b600073ffffffffffffffffffffffffffffffffffffffff168273ffffffffffffffffffffffffffffffffffffffff1614156125ae576040517f08c379a00000000000000000000000000000000000000000000000000000000081526004016125a5906147c7565b60405180910390fd5b6125b9838383612c80565b6125c460008261231c565b61261581600160008673ffffffffffffffffffffffffffffffffffffffff1673ffffffffffffffffffffffffffffffffffffffff168152602001908152602001600020612c8590919063ffffffff16565b5061266781600160008573ffffffffffffffffffffffffffffffffffffffff1673ffffffffffffffffffffffffffffffffffffffff168152602001908152602001600020612c9f90919063ffffffff16565b5061267e81836002612cb99092919063ffffffff16565b50808273ffffffffffffffffffffffffffffffffffffffff168473ffffffffffffffffffffffffffffffffffffffff167fddf252ad1be2c89b69c2b068fc378daa952ba7f163c4a11628f55a4df523b3ef60405160405180910390a4505050565b60006126ee8360000183612cee565b60001c905092915050565b60006127048261113e565b905061271281600084612c80565b61271d60008361231c565b600060086000848152602001908152602001600020805461273d90614cf0565b9050146127645760086000838152602001908152602001600020600061276391906135e1565b5b6127b582600160008473ffffffffffffffffffffffffffffffffffffffff1673ffffffffffffffffffffffffffffffffffffffff168152602001908152602001600020612c8590919063ffffffff16565b506127ca826002612d8890919063ffffffff16565b5081600073ffffffffffffffffffffffffffffffffffffffff168273ffffffffffffffffffffffffffffffffffffffff167fddf252ad1be2c89b69c2b068fc378daa952ba7f163c4a11628f55a4df523b3ef60405160405180910390a45050565b60008060008061283e8660000186612da2565b915091508160001c8160001c9350935050509250929050565b600061286a846000018460001b84612e52565b60001c90509392505050565b600061288482600001612f19565b9050919050565b6128968484846124c8565b6128a284848484612f2a565b6128e1576040517f08c379a00000000000000000000000000000000000000000000000000000000081526004016128d890614767565b60405180910390fd5b50505050565b6060600082141561292f576040518060400160405280600181526020017f30000000000000000000000000000000000000000000000000000000000000008152509050612a95565b600082905060005b6000821461296157808061294a90614d22565b915050600a8261295a9190614b8c565b9150612937565b60008167ffffffffffffffff8111156129a3577f4e487b7100000000000000000000000000000000000000000000000000000000600052604160045260246000fd5b6040519080825280601f01601f1916602001820160405280156129d55781602001600182028036833780820191505090505b50905060008290508593505b60008414612a8d57600a846129f69190614d6b565b6030612a029190614b36565b60f81b8282612a1090614cc6565b92508281518110612a4a577f4e487b7100000000000000000000000000000000000000000000000000000000600052603260045260246000fd5b60200101907effffffffffffffffffffffffffffffffffffffffffffffffffffffffffffff1916908160001a905350600a84612a869190614b8c565b93506129e1565b819450505050505b919050565b6001816000016000828254612aaf9190614b36565b9250508190555050565b600081600001549050919050565b600073ffffffffffffffffffffffffffffffffffffffff168273ffffffffffffffffffffffffffffffffffffffff161415612b37576040517f08c379a0000000000000000000000000000000000000000000000000000000008152600401612b2e906148a7565b60405180910390fd5b612b40816122f7565b15612b80576040517f08c379a0000000000000000000000000000000000000000000000000000000008152600401612b77906147a7565b60405180910390fd5b612b8c60008383612c80565b612bdd81600160008573ffffffffffffffffffffffffffffffffffffffff1673ffffffffffffffffffffffffffffffffffffffff168152602001908152602001600020612c9f90919063ffffffff16565b50612bf481836002612cb99092919063ffffffff16565b50808273ffffffffffffffffffffffffffffffffffffffff16600073ffffffffffffffffffffffffffffffffffffffff167fddf252ad1be2c89b69c2b068fc378daa952ba7f163c4a11628f55a4df523b3ef60405160405180910390a45050565b6000612c67836000018360001b6130c1565b905092915050565b600081600001805490509050919050565b505050565b6000612c97836000018360001b6130e4565b905092915050565b6000612cb1836000018360001b61326e565b905092915050565b6000612ce5846000018460001b8473ffffffffffffffffffffffffffffffffffffffff1660001b6132de565b90509392505050565b600081836000018054905011612d39576040517f08c379a0000000000000000000000000000000000000000000000000000000008152600401612d3090614747565b60405180910390fd5b826000018281548110612d75577f4e487b7100000000000000000000000000000000000000000000000000000000600052603260045260246000fd5b9060005260206000200154905092915050565b6000612d9a836000018360001b6133f0565b905092915050565b60008082846000018054905011612dee576040517f08c379a0000000000000000000000000000000000000000000000000000000008152600401612de590614887565b60405180910390fd5b6000846000018481548110612e2c577f4e487b7100000000000000000000000000000000000000000000000000000000600052603260045260246000fd5b906000526020600020906002020190508060000154816001015492509250509250929050565b60008084600101600085815260200190815260200160002054905060008114158390612eb4576040517f08c379a0000000000000000000000000000000000000000000000000000000008152600401612eab9190614725565b60405180910390fd5b5084600001600182612ec69190614bbd565b81548110612efd577f4e487b7100000000000000000000000000000000000000000000000000000000600052603260045260246000fd5b9060005260206000209060020201600101549150509392505050565b600081600001805490509050919050565b6000612f4b8473ffffffffffffffffffffffffffffffffffffffff166135ab565b156130b4578373ffffffffffffffffffffffffffffffffffffffff1663150b7a02612f74612314565b8786866040518563ffffffff1660e01b8152600401612f9694939291906146be565b602060405180830381600087803b158015612fb057600080fd5b505af1925050508015612fe157506040513d601f19601f82011682018060405250810190612fde9190613a87565b60015b613064573d8060008114613011576040519150601f19603f3d011682016040523d82523d6000602084013e613016565b606091505b5060008151141561305c576040517f08c379a000000000000000000000000000000000000000000000000000000000815260040161305390614767565b60405180910390fd5b805181602001fd5b63150b7a0260e01b7bffffffffffffffffffffffffffffffffffffffffffffffffffffffff1916817bffffffffffffffffffffffffffffffffffffffffffffffffffffffff1916149150506130b9565b600190505b949350505050565b600080836001016000848152602001908152602001600020541415905092915050565b600080836001016000848152602001908152602001600020549050600081146132625760006001826131169190614bbd565b905060006001866000018054905061312e9190614bbd565b9050600086600001828154811061316e577f4e487b7100000000000000000000000000000000000000000000000000000000600052603260045260246000fd5b90600052602060002001549050808760000184815481106131b8577f4e487b7100000000000000000000000000000000000000000000000000000000600052603260045260246000fd5b90600052602060002001819055506001836131d39190614b36565b8760010160008381526020019081526020016000208190555086600001805480613226577f4e487b7100000000000000000000000000000000000000000000000000000000600052603160045260246000fd5b60019003818190600052602060002001600090559055866001016000878152602001908152602001600020600090556001945050505050613268565b60009150505b92915050565b600061327a83836135be565b6132d35782600001829080600181540180825580915050600190039060005260206000200160009091909190915055826000018054905083600101600084815260200190815260200160002081905550600190506132d8565b600090505b92915050565b6000808460010160008581526020019081526020016000205490506000811415613385578460000160405180604001604052808681526020018581525090806001815401808255809150506001900390600052602060002090600202016000909190919091506000820151816000015560208201518160010155505084600001805490508560010160008681526020019081526020016000208190555060019150506133e9565b82856000016001836133979190614bbd565b815481106133ce577f4e487b7100000000000000000000000000000000000000000000000000000000600052603260045260246000fd5b90600052602060002090600202016001018190555060009150505b9392505050565b6000808360010160008481526020019081526020016000205490506000811461359f5760006001826134229190614bbd565b905060006001866000018054905061343a9190614bbd565b9050600086600001828154811061347a577f4e487b7100000000000000000000000000000000000000000000000000000000600052603260045260246000fd5b90600052602060002090600202019050808760000184815481106134c7577f4e487b7100000000000000000000000000000000000000000000000000000000600052603260045260246000fd5b906000526020600020906002020160008201548160000155600182015481600101559050506001836134f99190614b36565b876001016000836000015481526020019081526020016000208190555086600001805480613550577f4e487b7100000000000000000000000000000000000000000000000000000000600052603160045260246000fd5b60019003818190600052602060002090600202016000808201600090556001820160009055505090558660010160008781526020019081526020016000206000905560019450505050506135a5565b60009150505b92915050565b600080823b905060008111915050919050565b600080836001016000848152602001908152602001600020541415905092915050565b5080546135ed90614cf0565b6000825580601f106135ff575061361e565b601f01602090049060005260206000209081019061361d9190613728565b5b50565b508054600082559060005260206000209081019061363f9190613745565b50565b82805461364e90614cf0565b90600052602060002090601f01602090048101928261367057600085556136b7565b82601f1061368957805160ff19168380011785556136b7565b828001600101855582156136b7579182015b828111156136b657825182559160200191906001019061369b565b5b5090506136c49190613728565b5090565b828054828255906000526020600020908101928215613717579160200282015b82811115613716578251829080519060200190613706929190613642565b50916020019190600101906136e8565b5b5090506137249190613745565b5090565b5b80821115613741576000816000905550600101613729565b5090565b5b80821115613765576000818161375c91906135e1565b50600101613746565b5090565b600061377c61377784614a93565b614a62565b90508281526020810184848401111561379457600080fd5b61379f848285614c84565b509392505050565b60006137ba6137b584614ac3565b614a62565b9050828152602081018484840111156137d257600080fd5b6137dd848285614c84565b509392505050565b6000813590506137f481614e69565b92915050565b60008135905061380981614e80565b92915050565b60008135905061381e81614e97565b92915050565b60008151905061383381614e97565b92915050565b600082601f83011261384a57600080fd5b813561385a848260208601613769565b91505092915050565b600082601f83011261387457600080fd5b81356138848482602086016137a7565b91505092915050565b60008135905061389c81614eae565b92915050565b6000813590506138b181614ec5565b92915050565b6000602082840312156138c957600080fd5b60006138d7848285016137e5565b91505092915050565b600080604083850312156138f357600080fd5b6000613901858286016137e5565b9250506020613912858286016137e5565b9150509250929050565b60008060006060848603121561393157600080fd5b600061393f868287016137e5565b9350506020613950868287016137e5565b92505060406139618682870161388d565b9150509250925092565b6000806000806080858703121561398157600080fd5b600061398f878288016137e5565b94505060206139a0878288016137e5565b93505060406139b18782880161388d565b925050606085013567ffffffffffffffff8111156139ce57600080fd5b6139da87828801613839565b91505092959194509250565b600080604083850312156139f957600080fd5b6000613a07858286016137e5565b9250506020613a18858286016137fa565b9150509250929050565b60008060408385031215613a3557600080fd5b6000613a43858286016137e5565b9250506020613a548582860161388d565b9150509250929050565b600060208284031215613a7057600080fd5b6000613a7e8482850161380f565b91505092915050565b600060208284031215613a9957600080fd5b6000613aa784828501613824565b91505092915050565b600080600060608486031215613ac557600080fd5b600084013567ffffffffffffffff811115613adf57600080fd5b613aeb86828701613863565b935050602084013567ffffffffffffffff811115613b0857600080fd5b613b1486828701613863565b9250506040613b258682870161388d565b9150509250925092565b600060208284031215613b4157600080fd5b6000613b4f8482850161388d565b91505092915050565b60008060408385031215613b6b57600080fd5b6000613b798582860161388d565b925050602083013567ffffffffffffffff811115613b9657600080fd5b613ba285828601613863565b9150509250929050565b60008060008060808587031215613bc257600080fd5b6000613bd08782880161388d565b945050602085013567ffffffffffffffff811115613bed57600080fd5b613bf987828801613863565b935050604085013567ffffffffffffffff811115613c1657600080fd5b613c2287828801613863565b9250506060613c338782880161388d565b91505092959194509250565b600060208284031215613c5157600080fd5b6000613c5f848285016138a2565b91505092915050565b613c7181614c03565b82525050565b613c8081614bf1565b82525050565b613c8f81614c15565b82525050565b6000613ca082614af3565b613caa8185614b09565b9350613cba818560208601614c93565b613cc381614e58565b840191505092915050565b6000613cd982614afe565b613ce38185614b1a565b9350613cf3818560208601614c93565b613cfc81614e58565b840191505092915050565b6000613d1282614afe565b613d1c8185614b2b565b9350613d2c818560208601614c93565b80840191505092915050565b6000613d45602283614b1a565b91507f456e756d657261626c655365743a20696e646578206f7574206f6620626f756e60008301527f64730000000000000000000000000000000000000000000000000000000000006020830152604082019050919050565b6000613dab603283614b1a565b91507f4552433732313a207472616e7366657220746f206e6f6e20455243373231526560008301527f63656976657220696d706c656d656e74657200000000000000000000000000006020830152604082019050919050565b6000613e11602683614b1a565b91507f4f776e61626c653a206e6577206f776e657220697320746865207a65726f206160008301527f64647265737300000000000000000000000000000000000000000000000000006020830152604082019050919050565b6000613e77601c83614b1a565b91507f4552433732313a20746f6b656e20616c7265616479206d696e746564000000006000830152602082019050919050565b6000613eb7602483614b1a565b91507f4552433732313a207472616e7366657220746f20746865207a65726f2061646460008301527f72657373000000000000000000000000000000000000000000000000000000006020830152604082019050919050565b6000613f1d601983614b1a565b91507f4552433732313a20617070726f766520746f2063616c6c6572000000000000006000830152602082019050919050565b6000613f5d602c83614b1a565b91507f4552433732313a206f70657261746f7220717565727920666f72206e6f6e657860008301527f697374656e7420746f6b656e00000000000000000000000000000000000000006020830152604082019050919050565b6000613fc3603883614b1a565b91507f4552433732313a20617070726f76652063616c6c6572206973206e6f74206f7760008301527f6e6572206e6f7220617070726f76656420666f7220616c6c00000000000000006020830152604082019050919050565b6000614029602a83614b1a565b91507f4f6e65206f66207468652074776f206164726573736573206d7573742062652060008301527f7468652073656e646572000000000000000000000000000000000000000000006020830152604082019050919050565b600061408f602a83614b1a565b91507f4552433732313a2062616c616e636520717565727920666f7220746865207a6560008301527f726f2061646472657373000000000000000000000000000000000000000000006020830152604082019050919050565b60006140f5602283614b1a565b91507f456e756d657261626c654d61703a20696e646578206f7574206f6620626f756e60008301527f64730000000000000000000000000000000000000000000000000000000000006020830152604082019050919050565b600061415b602083614b1a565b91507f4552433732313a206d696e7420746f20746865207a65726f20616464726573736000830152602082019050919050565b600061419b602683614b1a565b91507f596f75206d757374206769766520657861637420616d6d6f756e74206f66207760008301527f65692f65746800000000000000000000000000000000000000000000000000006020830152604082019050919050565b6000614201602c83614b1a565b91507f4552433732313a20617070726f76656420717565727920666f72206e6f6e657860008301527f697374656e7420746f6b656e00000000000000000000000000000000000000006020830152604082019050919050565b6000614267602083614b1a565b91507f4f776e61626c653a2063616c6c6572206973206e6f7420746865206f776e65726000830152602082019050919050565b60006142a7602f83614b1a565b91507f436f6d6d697373696f6e2070657263656e74616765206d75737420626520626560008301527f747765656e203020616e642031303000000000000000000000000000000000006020830152604082019050919050565b600061430d601f83614b1a565b91507f596f75206d75737420626520746865206f776e6572206f6620746865206164006000830152602082019050919050565b600061434d602983614b1a565b91507f4552433732313a207472616e73666572206f6620746f6b656e2074686174206960008301527f73206e6f74206f776e00000000000000000000000000000000000000000000006020830152604082019050919050565b60006143b3602f83614b1a565b91507f4552433732314d657461646174613a2055524920717565727920666f72206e6f60008301527f6e6578697374656e7420746f6b656e00000000000000000000000000000000006020830152604082019050919050565b6000614419602883614b1a565b91507f43616e6e6f74206368616e6765206f6e53616c6520737461747573206f66206160008301527f20736f6c642061640000000000000000000000000000000000000000000000006020830152604082019050919050565b600061447f602183614b1a565b91507f4552433732313a20617070726f76616c20746f2063757272656e74206f776e6560008301527f72000000000000000000000000000000000000000000000000000000000000006020830152604082019050919050565b60006144e5601f83614b1a565b91507f596f752063616e6e6f7420707572636861736520796f7572206f776e206164006000830152602082019050919050565b6000614525603183614b1a565b91507f4552433732313a207472616e736665722063616c6c6572206973206e6f74206f60008301527f776e6572206e6f7220617070726f7665640000000000000000000000000000006020830152604082019050919050565b600061458b603083614b1a565b91507f4552433732314275726e61626c653a2063616c6c6572206973206e6f74206f7760008301527f6e6572206e6f7220617070726f766564000000000000000000000000000000006020830152604082019050919050565b6145ed81614c6d565b82525050565b60006145ff8285613d07565b915061460b8284613d07565b91508190509392505050565b600060208201905061462c6000830184613c77565b92915050565b600061010082019050614648600083018b613c68565b818103602083015261465a818a613cce565b9050818103604083015261466e8189613cce565b905061467d60608301886145e4565b61468a6080830187613c86565b61469760a0830186613c86565b6146a460c0830185613c77565b6146b160e0830184613c77565b9998505050505050505050565b60006080820190506146d36000830187613c77565b6146e06020830186613c77565b6146ed60408301856145e4565b81810360608301526146ff8184613c95565b905095945050505050565b600060208201905061471f6000830184613c86565b92915050565b6000602082019050818103600083015261473f8184613cce565b905092915050565b6000602082019050818103600083015261476081613d38565b9050919050565b6000602082019050818103600083015261478081613d9e565b9050919050565b600060208201905081810360008301526147a081613e04565b9050919050565b600060208201905081810360008301526147c081613e6a565b9050919050565b600060208201905081810360008301526147e081613eaa565b9050919050565b6000602082019050818103600083015261480081613f10565b9050919050565b6000602082019050818103600083015261482081613f50565b9050919050565b6000602082019050818103600083015261484081613fb6565b9050919050565b600060208201905081810360008301526148608161401c565b9050919050565b6000602082019050818103600083015261488081614082565b9050919050565b600060208201905081810360008301526148a0816140e8565b9050919050565b600060208201905081810360008301526148c08161414e565b9050919050565b600060208201905081810360008301526148e08161418e565b9050919050565b60006020820190508181036000830152614900816141f4565b9050919050565b600060208201905081810360008301526149208161425a565b9050919050565b600060208201905081810360008301526149408161429a565b9050919050565b6000602082019050818103600083015261496081614300565b9050919050565b6000602082019050818103600083015261498081614340565b9050919050565b600060208201905081810360008301526149a0816143a6565b9050919050565b600060208201905081810360008301526149c08161440c565b9050919050565b600060208201905081810360008301526149e081614472565b9050919050565b60006020820190508181036000830152614a00816144d8565b9050919050565b60006020820190508181036000830152614a2081614518565b9050919050565b60006020820190508181036000830152614a408161457e565b9050919050565b6000602082019050614a5c60008301846145e4565b92915050565b6000604051905081810181811067ffffffffffffffff82111715614a8957614a88614e29565b5b8060405250919050565b600067ffffffffffffffff821115614aae57614aad614e29565b5b601f19601f8301169050602081019050919050565b600067ffffffffffffffff821115614ade57614add614e29565b5b601f19601f8301169050602081019050919050565b600081519050919050565b600081519050919050565b600082825260208201905092915050565b600082825260208201905092915050565b600081905092915050565b6000614b4182614c6d565b9150614b4c83614c6d565b9250827fffffffffffffffffffffffffffffffffffffffffffffffffffffffffffffffff03821115614b8157614b80614d9c565b5b828201905092915050565b6000614b9782614c6d565b9150614ba283614c6d565b925082614bb257614bb1614dcb565b5b828204905092915050565b6000614bc882614c6d565b9150614bd383614c6d565b925082821015614be657614be5614d9c565b5b828203905092915050565b6000614bfc82614c4d565b9050919050565b6000614c0e82614c4d565b9050919050565b60008115159050919050565b60007fffffffff0000000000000000000000000000000000000000000000000000000082169050919050565b600073ffffffffffffffffffffffffffffffffffffffff82169050919050565b6000819050919050565b600060ff82169050919050565b82818337600083830152505050565b60005b83811015614cb1578082015181840152602081019050614c96565b83811115614cc0576000848401525b50505050565b6000614cd182614c6d565b91506000821415614ce557614ce4614d9c565b5b600182039050919050565b60006002820490506001821680614d0857607f821691505b60208210811415614d1c57614d1b614dfa565b5b50919050565b6000614d2d82614c6d565b91507fffffffffffffffffffffffffffffffffffffffffffffffffffffffffffffffff821415614d6057614d5f614d9c565b5b600182019050919050565b6000614d7682614c6d565b9150614d8183614c6d565b925082614d9157614d90614dcb565b5b828206905092915050565b7f4e487b7100000000000000000000000000000000000000000000000000000000600052601160045260246000fd5b7f4e487b7100000000000000000000000000000000000000000000000000000000600052601260045260246000fd5b7f4e487b7100000000000000000000000000000000000000000000000000000000600052602260045260246000fd5b7f4e487b7100000000000000000000000000000000000000000000000000000000600052604160045260246000fd5b6000601f19601f8301169050919050565b614e7281614bf1565b8114614e7d57600080fd5b50565b614e8981614c15565b8114614e9457600080fd5b50565b614ea081614c21565b8114614eab57600080fd5b50565b614eb781614c6d565b8114614ec257600080fd5b50565b614ece81614c77565b8114614ed957600080fd5b5056fe4552433732313a206f776e657220717565727920666f72206e6f6e6578697374656e7420746f6b656ea2646970667358221220ab242fdfc5e08d7636b4db5766ecd84d2e0f5a64ca26496a132610cbd6e7360b64736f6c63430008000033",
  "immutableReferences": {},
  "source": "//SPDX-License-Identifier: UNLICENSED\r\npragma solidity <=0.8.0;\r\n\r\nimport \"@openzeppelin/contracts/token/ERC721/ERC721.sol\";\r\nimport \"@openzeppelin/contracts/token/ERC721/IERC721Enumerable.sol\";\r\nimport \"@openzeppelin/contracts/token/ERC721/ERC721Burnable.sol\";\r\nimport \"@openzeppelin/contracts/utils/Counters.sol\";\r\nimport \"@openzeppelin/contracts/access/Ownable.sol\";\r\nimport \"./access-control/Auth.sol\";\r\n\r\ncontract Ad is ERC721, ERC721Burnable, Ownable {\r\n\r\n  using Counters for Counters.Counter;\r\n  Counters.Counter private _tokenIds;\r\n\r\n  mapping(uint256 => myAd) public ads;\r\n\r\n  uint8 commissionPercentage = 10;\r\n\r\n  struct myAd {\r\n    address payable adCreator;\r\n    string adName;\r\n    string adAddress;\r\n    uint256 adPrice;\r\n    bool adOnSale;\r\n    bool adIsSold;\r\n    address adBuyer;\r\n    address adPropertyOwner;\r\n    string[] adImages;\r\n  }\r\n\r\n  //  function uploadImage(string hash, string ipfs) public{\r\n  //      images[msg.sender].push(Image(hash,ipfs)); //\r\n  //  }\r\n\r\n  constructor() ERC721(\"Ad\", \"AD\") {\r\n  }\r\n\r\n  //ad creation\r\n  function mint(string memory _adName, string memory _adAddress, uint256 _adPrice) external {\r\n    _tokenIds.increment();\r\n    uint256 newNftTokenId = _tokenIds.current();\r\n\r\n    myAd memory _ad = myAd({ \r\n      adCreator: payable(msg.sender),\r\n      adName: _adName,\r\n      adAddress: _adAddress,\r\n      adPrice: _adPrice,\r\n      adOnSale: false,\r\n      adIsSold: false,\r\n      adBuyer: address(0),\r\n      adPropertyOwner: msg.sender,\r\n      adImages: new string[](0)\r\n      });\r\n\r\n    ads[newNftTokenId] = _ad;\r\n\r\n    _mint(msg.sender, newNftTokenId);\r\n  }\r\n\r\n  function adImageToAd(uint256 _ad, string memory _imageLink) external {\r\n    require(msg.sender == ownerOf(_ad), \"You must be the owner of the ad\");\r\n    ads[_ad].adImages.push(_imageLink);\r\n  }\r\n\r\n  //ad update to change any of his component\r\n  function updateAd(uint256 _ad, string memory _adName, string memory _adAddress, uint256 _adPrice) external {\r\n    require(msg.sender == ownerOf(_ad), \"You must be the owner of the ad\");\r\n    ads[_ad].adName = _adName;\r\n    ads[_ad].adAddress = _adAddress;\r\n    ads[_ad].adPrice = _adPrice;\r\n  }\r\n\r\n  //\"buying\" the ad (performed when someone purchase)\r\n  function buyAd(uint256 _ad) external payable {\r\n    require(msg.sender != ownerOf(_ad), \"You cannot purchase your own ad\");\r\n    require(msg.value == ads[_ad].adPrice, \"You must give exact ammount of wei/eth\");\r\n    require(ads[_ad].adCreator.send(msg.value-(msg.value/commissionPercentage)));\r\n    require(payable(address(this)).send(msg.value/commissionPercentage));\r\n    ads[_ad].adBuyer = msg.sender;\r\n    ads[_ad].adPropertyOwner = msg.sender;\r\n    ads[_ad].adOnSale = false;\r\n    ads[_ad].adIsSold = true;\r\n    safeTransferFrom(ownerOf(_ad), msg.sender, _ad);\r\n  }\r\n\r\n  //changing \"onSale\" status of an ad\r\n  function changeOnSaleStatus(uint256 _ad) external {\r\n    require(msg.sender == ownerOf(_ad), \"You must be the owner of the ad\");\r\n    require(ads[_ad].adIsSold == false, \"Cannot change onSale status of a sold ad\");\r\n    ads[_ad].adOnSale = !ads[_ad].adOnSale;\r\n  }\r\n\r\n  //changing the comission took by the owner of the smart contract\r\n  function changeComissionPercentage(uint8 _commissionPercentage) external onlyOwner {\r\n    require(_commissionPercentage >= 0 && _commissionPercentage <= 100, \"Commission percentage must be between 0 and 100\");\r\n    commissionPercentage = _commissionPercentage;\r\n  }\r\n\r\n  //deleting an ad\r\n  function deleteAd(uint256 _ad) external {\r\n    require(msg.sender == ownerOf(_ad), \"You must be the owner of the ad\");\r\n    burn(_ad);\r\n    delete(ads[_ad]);\r\n  }\r\n\r\n  function changeTokenOwnership(address _from, address _to, uint256 _tokenId) external payable {\r\n    require(_from == ownerOf(_tokenId) && (msg.sender == _from || msg.sender == _to), \"One of the two adresses must be the sender\");\r\n    safeTransferFrom(_from, _to, _tokenId);\r\n  }\r\n\r\n  function getNumberofAds() external view returns (uint256) {\r\n    return totalSupply();\r\n  }\r\n\r\n  function getAdsOfOwnerByIndex(address _owner, uint256 _index) external view returns (uint256 tokenId) {\r\n    return tokenOfOwnerByIndex(_owner, _index);\r\n  }\r\n\r\n  function getAdByIndex(uint256 _index) external view returns (uint256) {\r\n    return tokenByIndex(_index);\r\n  }\r\n\r\n}",
  "sourcePath": "C:/Users/Axel/Documents/Cours/Supinfo/Msc2/5BLOC/PROJET/src/contracts/Ad.sol",
  "compiler": {
    "name": "solc",
    "version": "0.8.0+commit.c7dfd78e.Emscripten.clang"
  },
  "schemaVersion": "3.3.3",
  "updatedAt": "2021-02-26T22:19:29.349Z",
  "devdoc": {
    "kind": "dev",
    "methods": {
      "approve(address,uint256)": {
        "details": "See {IERC721-approve}."
      },
      "balanceOf(address)": {
        "details": "See {IERC721-balanceOf}."
      },
      "baseURI()": {
        "details": "Returns the base URI set via {_setBaseURI}. This will be automatically added as a prefix in {tokenURI} to each token's URI, or to the token ID if no specific URI is set for that token ID."
      },
      "burn(uint256)": {
        "details": "Burns `tokenId`. See {ERC721-_burn}. Requirements: - The caller must own `tokenId` or be an approved operator."
      },
      "getApproved(uint256)": {
        "details": "See {IERC721-getApproved}."
      },
      "isApprovedForAll(address,address)": {
        "details": "See {IERC721-isApprovedForAll}."
      },
      "name()": {
        "details": "See {IERC721Metadata-name}."
      },
      "owner()": {
        "details": "Returns the address of the current owner."
      },
      "ownerOf(uint256)": {
        "details": "See {IERC721-ownerOf}."
      },
      "renounceOwnership()": {
        "details": "Leaves the contract without owner. It will not be possible to call `onlyOwner` functions anymore. Can only be called by the current owner. NOTE: Renouncing ownership will leave the contract without an owner, thereby removing any functionality that is only available to the owner."
      },
      "safeTransferFrom(address,address,uint256)": {
        "details": "See {IERC721-safeTransferFrom}."
      },
      "safeTransferFrom(address,address,uint256,bytes)": {
        "details": "See {IERC721-safeTransferFrom}."
      },
      "setApprovalForAll(address,bool)": {
        "details": "See {IERC721-setApprovalForAll}."
      },
      "supportsInterface(bytes4)": {
        "details": "See {IERC165-supportsInterface}. Time complexity O(1), guaranteed to always use less than 30 000 gas."
      },
      "symbol()": {
        "details": "See {IERC721Metadata-symbol}."
      },
      "tokenByIndex(uint256)": {
        "details": "See {IERC721Enumerable-tokenByIndex}."
      },
      "tokenOfOwnerByIndex(address,uint256)": {
        "details": "See {IERC721Enumerable-tokenOfOwnerByIndex}."
      },
      "tokenURI(uint256)": {
        "details": "See {IERC721Metadata-tokenURI}."
      },
      "totalSupply()": {
        "details": "See {IERC721Enumerable-totalSupply}."
      },
      "transferFrom(address,address,uint256)": {
        "details": "See {IERC721-transferFrom}."
      },
      "transferOwnership(address)": {
        "details": "Transfers ownership of the contract to a new account (`newOwner`). Can only be called by the current owner."
      }
    },
    "version": 1
  },
  "userdoc": {
    "kind": "user",
    "methods": {},
    "version": 1
  }
}