{
  "contractName": "Auth",
  "abi": [
    {
      "inputs": [],
      "stateMutability": "nonpayable",
      "type": "constructor"
    },
    {
      "inputs": [
        {
          "internalType": "address",
          "name": "user",
          "type": "address"
        }
      ],
      "name": "isAdministrator",
      "outputs": [
        {
          "internalType": "bool",
          "name": "",
          "type": "bool"
        }
      ],
      "stateMutability": "view",
      "type": "function"
    }
  ],
  "bytecode": "0x608060405234801561001057600080fd5b50336000806101000a81548173ffffffffffffffffffffffffffffffffffffffff021916908373ffffffffffffffffffffffffffffffffffffffff1602179055506101ac806100606000396000f3fe608060405234801561001057600080fd5b506004361061002b5760003560e01c80630a2eb30114610030575b600080fd5b61004a600480360381019061004591906100ce565b610060565b6040516100579190610106565b60405180910390f35b60008060009054906101000a900473ffffffffffffffffffffffffffffffffffffffff1673ffffffffffffffffffffffffffffffffffffffff168273ffffffffffffffffffffffffffffffffffffffff16149050919050565b6000813590506100c88161015f565b92915050565b6000602082840312156100e057600080fd5b60006100ee848285016100b9565b91505092915050565b61010081610133565b82525050565b600060208201905061011b60008301846100f7565b92915050565b600061012c8261013f565b9050919050565b60008115159050919050565b600073ffffffffffffffffffffffffffffffffffffffff82169050919050565b61016881610121565b811461017357600080fd5b5056fea264697066735822122029f159484b29b3f5a48513b3aebef4bbe78771d14821df440946bb3cf53a247264736f6c63430008000033",
  "immutableReferences": {},
  "source": "//SPDX-License-Identifier: UNLICENSED\r\npragma solidity <=0.8.0;\r\n\r\ncontract Auth {\r\n    address private administrator;\r\n\r\n    constructor() {\r\n        // Make the deployer of the contract the administrator\r\n        administrator = msg.sender;\r\n    }\r\n\r\n    function isAdministrator(address user) public view returns (bool) {\r\n        return user == administrator;\r\n    }\r\n}",
  "sourcePath": "C:\\Users\\Axel\\Documents\\Cours\\Supinfo\\Msc2\\5BLOC\\PROJET\\src\\contracts\\access-control\\Auth.sol",
  "compiler": {
    "name": "solc",
    "version": "0.8.0+commit.c7dfd78e.Emscripten.clang"
  },
  "schemaVersion": "3.3.3",
  "updatedAt": "2021-02-26T22:19:29.357Z",
  "devdoc": {
    "kind": "dev",
    "methods": {},
    "version": 1
  },
  "userdoc": {
    "kind": "user",
    "methods": {},
    "version": 1
  }
}