{
  "contractName": "Color",
  "abi": [
    {
      "inputs": [],
      "stateMutability": "nonpayable",
      "type": "constructor"
    },
    {
      "anonymous": false,
      "inputs": [
        {
          "indexed": true,
          "internalType": "address",
          "name": "owner",
          "type": "address"
        },
        {
          "indexed": true,
          "internalType": "address",
          "name": "approved",
          "type": "address"
        },
        {
          "indexed": true,
          "internalType": "uint256",
          "name": "tokenId",
          "type": "uint256"
        }
      ],
      "name": "Approval",
      "type": "event"
    },
    {
      "anonymous": false,
      "inputs": [
        {
          "indexed": true,
          "internalType": "address",
          "name": "owner",
          "type": "address"
        },
        {
          "indexed": true,
          "internalType": "address",
          "name": "operator",
          "type": "address"
        },
        {
          "indexed": false,
          "internalType": "bool",
          "name": "approved",
          "type": "bool"
        }
      ],
      "name": "ApprovalForAll",
      "type": "event"
    },
    {
      "anonymous": false,
      "inputs": [
        {
          "indexed": true,
          "internalType": "address",
          "name": "from",
          "type": "address"
        },
        {
          "indexed": true,
          "internalType": "address",
          "name": "to",
          "type": "address"
        },
        {
          "indexed": true,
          "internalType": "uint256",
          "name": "tokenId",
          "type": "uint256"
        }
      ],
      "name": "Transfer",
      "type": "event"
    },
    {
      "inputs": [
        {
          "internalType": "address",
          "name": "to",
          "type": "address"
        },
        {
          "internalType": "uint256",
          "name": "tokenId",
          "type": "uint256"
        }
      ],
      "name": "approve",
      "outputs": [],
      "stateMutability": "nonpayable",
      "type": "function"
    },
    {
      "inputs": [
        {
          "internalType": "address",
          "name": "owner",
          "type": "address"
        }
      ],
      "name": "balanceOf",
      "outputs": [
        {
          "internalType": "uint256",
          "name": "",
          "type": "uint256"
        }
      ],
      "stateMutability": "view",
      "type": "function",
      "constant": true
    },
    {
      "inputs": [],
      "name": "baseURI",
      "outputs": [
        {
          "internalType": "string",
          "name": "",
          "type": "string"
        }
      ],
      "stateMutability": "view",
      "type": "function",
      "constant": true
    },
    {
      "inputs": [
        {
          "internalType": "uint256",
          "name": "",
          "type": "uint256"
        }
      ],
      "name": "colors",
      "outputs": [
        {
          "internalType": "string",
          "name": "",
          "type": "string"
        }
      ],
      "stateMutability": "view",
      "type": "function",
      "constant": true
    },
    {
      "inputs": [
        {
          "internalType": "uint256",
          "name": "tokenId",
          "type": "uint256"
        }
      ],
      "name": "getApproved",
      "outputs": [
        {
          "internalType": "address",
          "name": "",
          "type": "address"
        }
      ],
      "stateMutability": "view",
      "type": "function",
      "constant": true
    },
    {
      "inputs": [
        {
          "internalType": "address",
          "name": "owner",
          "type": "address"
        },
        {
          "internalType": "address",
          "name": "operator",
          "type": "address"
        }
      ],
      "name": "isApprovedForAll",
      "outputs": [
        {
          "internalType": "bool",
          "name": "",
          "type": "bool"
        }
      ],
      "stateMutability": "view",
      "type": "function",
      "constant": true
    },
    {
      "inputs": [],
      "name": "name",
      "outputs": [
        {
          "internalType": "string",
          "name": "",
          "type": "string"
        }
      ],
      "stateMutability": "view",
      "type": "function",
      "constant": true
    },
    {
      "inputs": [
        {
          "internalType": "uint256",
          "name": "tokenId",
          "type": "uint256"
        }
      ],
      "name": "ownerOf",
      "outputs": [
        {
          "internalType": "address",
          "name": "",
          "type": "address"
        }
      ],
      "stateMutability": "view",
      "type": "function",
      "constant": true
    },
    {
      "inputs": [
        {
          "internalType": "address",
          "name": "from",
          "type": "address"
        },
        {
          "internalType": "address",
          "name": "to",
          "type": "address"
        },
        {
          "internalType": "uint256",
          "name": "tokenId",
          "type": "uint256"
        }
      ],
      "name": "safeTransferFrom",
      "outputs": [],
      "stateMutability": "nonpayable",
      "type": "function"
    },
    {
      "inputs": [
        {
          "internalType": "address",
          "name": "from",
          "type": "address"
        },
        {
          "internalType": "address",
          "name": "to",
          "type": "address"
        },
        {
          "internalType": "uint256",
          "name": "tokenId",
          "type": "uint256"
        },
        {
          "internalType": "bytes",
          "name": "_data",
          "type": "bytes"
        }
      ],
      "name": "safeTransferFrom",
      "outputs": [],
      "stateMutability": "nonpayable",
      "type": "function"
    },
    {
      "inputs": [
        {
          "internalType": "address",
          "name": "operator",
          "type": "address"
        },
        {
          "internalType": "bool",
          "name": "approved",
          "type": "bool"
        }
      ],
      "name": "setApprovalForAll",
      "outputs": [],
      "stateMutability": "nonpayable",
      "type": "function"
    },
    {
      "inputs": [
        {
          "internalType": "bytes4",
          "name": "interfaceId",
          "type": "bytes4"
        }
      ],
      "name": "supportsInterface",
      "outputs": [
        {
          "internalType": "bool",
          "name": "",
          "type": "bool"
        }
      ],
      "stateMutability": "view",
      "type": "function",
      "constant": true
    },
    {
      "inputs": [],
      "name": "symbol",
      "outputs": [
        {
          "internalType": "string",
          "name": "",
          "type": "string"
        }
      ],
      "stateMutability": "view",
      "type": "function",
      "constant": true
    },
    {
      "inputs": [
        {
          "internalType": "uint256",
          "name": "index",
          "type": "uint256"
        }
      ],
      "name": "tokenByIndex",
      "outputs": [
        {
          "internalType": "uint256",
          "name": "",
          "type": "uint256"
        }
      ],
      "stateMutability": "view",
      "type": "function",
      "constant": true
    },
    {
      "inputs": [
        {
          "internalType": "address",
          "name": "owner",
          "type": "address"
        },
        {
          "internalType": "uint256",
          "name": "index",
          "type": "uint256"
        }
      ],
      "name": "tokenOfOwnerByIndex",
      "outputs": [
        {
          "internalType": "uint256",
          "name": "",
          "type": "uint256"
        }
      ],
      "stateMutability": "view",
      "type": "function",
      "constant": true
    },
    {
      "inputs": [
        {
          "internalType": "uint256",
          "name": "tokenId",
          "type": "uint256"
        }
      ],
      "name": "tokenURI",
      "outputs": [
        {
          "internalType": "string",
          "name": "",
          "type": "string"
        }
      ],
      "stateMutability": "view",
      "type": "function",
      "constant": true
    },
    {
      "inputs": [],
      "name": "totalSupply",
      "outputs": [
        {
          "internalType": "uint256",
          "name": "",
          "type": "uint256"
        }
      ],
      "stateMutability": "view",
      "type": "function",
      "constant": true
    },
    {
      "inputs": [
        {
          "internalType": "address",
          "name": "from",
          "type": "address"
        },
        {
          "internalType": "address",
          "name": "to",
          "type": "address"
        },
        {
          "internalType": "uint256",
          "name": "tokenId",
          "type": "uint256"
        }
      ],
      "name": "transferFrom",
      "outputs": [],
      "stateMutability": "nonpayable",
      "type": "function"
    },
    {
      "inputs": [
        {
          "internalType": "string",
          "name": "_color",
          "type": "string"
        }
      ],
      "name": "mint",
      "outputs": [],
      "stateMutability": "nonpayable",
      "type": "function"
    }
  ],
  "bytecode": "0x60806040523480156200001157600080fd5b506040518060400160405280600581526020017f436f6c6f720000000000000000000000000000000000000000000000000000008152506040518060400160405280600581526020017f434f4c4f52000000000000000000000000000000000000000000000000000000815250620000af7f01ffc9a7000000000000000000000000000000000000000000000000000000006200017c60201b60201c565b8160069080519060200190620000c792919062000254565b508060079080519060200190620000e092919062000254565b50620001127f80ac58cd000000000000000000000000000000000000000000000000000000006200017c60201b60201c565b620001437f5b5e139f000000000000000000000000000000000000000000000000000000006200017c60201b60201c565b620001747f780e9d63000000000000000000000000000000000000000000000000000000006200017c60201b60201c565b5050620003de565b63ffffffff60e01b817bffffffffffffffffffffffffffffffffffffffffffffffffffffffff19161415620001e8576040517f08c379a0000000000000000000000000000000000000000000000000000000008152600401620001df9062000346565b60405180910390fd5b6001600080837bffffffffffffffffffffffffffffffffffffffffffffffffffffffff19167bffffffffffffffffffffffffffffffffffffffffffffffffffffffff1916815260200190815260200160002060006101000a81548160ff02191690831515021790555050565b828054620002629062000379565b90600052602060002090601f016020900481019282620002865760008555620002d2565b82601f10620002a157805160ff1916838001178555620002d2565b82800160010185558215620002d2579182015b82811115620002d1578251825591602001919060010190620002b4565b5b509050620002e19190620002e5565b5090565b5b8082111562000300576000816000905550600101620002e6565b5090565b600062000313601c8362000368565b91507f4552433136353a20696e76616c696420696e74657266616365206964000000006000830152602082019050919050565b60006020820190508181036000830152620003618162000304565b9050919050565b600082825260208201905092915050565b600060028204905060018216806200039257607f821691505b60208210811415620003a957620003a8620003af565b5b50919050565b7f4e487b7100000000000000000000000000000000000000000000000000000000600052602260045260246000fd5b612d9480620003ee6000396000f3fe608060405234801561001057600080fd5b50600436106101215760003560e01c80636352211e116100ad578063b88d4fde11610071578063b88d4fde1461032e578063bd11f69d1461034a578063c87b56dd1461037a578063d85d3d27146103aa578063e985e9c5146103c657610121565b80636352211e146102765780636c0360eb146102a657806370a08231146102c457806395d89b41146102f4578063a22cb4651461031257610121565b806318160ddd116100f457806318160ddd146101c057806323b872dd146101de5780632f745c59146101fa57806342842e0e1461022a5780634f6ccce71461024657610121565b806301ffc9a71461012657806306fdde0314610156578063081812fc14610174578063095ea7b3146101a4575b600080fd5b610140600480360381019061013b9190611fc3565b6103f6565b60405161014d91906126f9565b60405180910390f35b61015e61045d565b60405161016b9190612714565b60405180910390f35b61018e60048036038101906101899190612056565b6104ef565b60405161019b9190612692565b60405180910390f35b6101be60048036038101906101b99190611f87565b610574565b005b6101c861068c565b6040516101d591906128d6565b60405180910390f35b6101f860048036038101906101f39190611e81565b61069d565b005b610214600480360381019061020f9190611f87565b6106fd565b60405161022191906128d6565b60405180910390f35b610244600480360381019061023f9190611e81565b610758565b005b610260600480360381019061025b9190612056565b610778565b60405161026d91906128d6565b60405180910390f35b610290600480360381019061028b9190612056565b61079b565b60405161029d9190612692565b60405180910390f35b6102ae6107d2565b6040516102bb9190612714565b60405180910390f35b6102de60048036038101906102d99190611e1c565b610864565b6040516102eb91906128d6565b60405180910390f35b6102fc610923565b6040516103099190612714565b60405180910390f35b61032c60048036038101906103279190611f4b565b6109b5565b005b61034860048036038101906103439190611ed0565b610b36565b005b610364600480360381019061035f9190612056565b610b98565b6040516103719190612714565b60405180910390f35b610394600480360381019061038f9190612056565b610c44565b6040516103a19190612714565b60405180910390f35b6103c460048036038101906103bf9190612015565b610db7565b005b6103e060048036038101906103db9190611e45565b610e27565b6040516103ed91906126f9565b60405180910390f35b6000806000837bffffffffffffffffffffffffffffffffffffffffffffffffffffffff19167bffffffffffffffffffffffffffffffffffffffffffffffffffffffff1916815260200190815260200160002060009054906101000a900460ff169050919050565b60606006805461046c90612b60565b80601f016020809104026020016040519081016040528092919081815260200182805461049890612b60565b80156104e55780601f106104ba576101008083540402835291602001916104e5565b820191906000526020600020905b8154815290600101906020018083116104c857829003601f168201915b5050505050905090565b60006104fa82610ebb565b610539576040517f08c379a000000000000000000000000000000000000000000000000000000000815260040161053090612836565b60405180910390fd5b6004600083815260200190815260200160002060009054906101000a900473ffffffffffffffffffffffffffffffffffffffff169050919050565b600061057f8261079b565b90508073ffffffffffffffffffffffffffffffffffffffff168373ffffffffffffffffffffffffffffffffffffffff1614156105f0576040517f08c379a00000000000000000000000000000000000000000000000000000000081526004016105e790612896565b60405180910390fd5b8073ffffffffffffffffffffffffffffffffffffffff1661060f610ed8565b73ffffffffffffffffffffffffffffffffffffffff16148061063e575061063d81610638610ed8565b610e27565b5b61067d576040517f08c379a0000000000000000000000000000000000000000000000000000000008152600401610674906127d6565b60405180910390fd5b6106878383610ee0565b505050565b60006106986002610f99565b905090565b6106ae6106a8610ed8565b82610fae565b6106ed576040517f08c379a00000000000000000000000000000000000000000000000000000000081526004016106e4906128b6565b60405180910390fd5b6106f883838361108c565b505050565b600061075082600160008673ffffffffffffffffffffffffffffffffffffffff1673ffffffffffffffffffffffffffffffffffffffff1681526020019081526020016000206112a390919063ffffffff16565b905092915050565b61077383838360405180602001604052806000815250610b36565b505050565b60008061078f8360026112bd90919063ffffffff16565b50905080915050919050565b60006107cb82604051806060016040528060298152602001612d366029913960026112e99092919063ffffffff16565b9050919050565b6060600980546107e190612b60565b80601f016020809104026020016040519081016040528092919081815260200182805461080d90612b60565b801561085a5780601f1061082f5761010080835404028352916020019161085a565b820191906000526020600020905b81548152906001019060200180831161083d57829003601f168201915b5050505050905090565b60008073ffffffffffffffffffffffffffffffffffffffff168273ffffffffffffffffffffffffffffffffffffffff1614156108d5576040517f08c379a00000000000000000000000000000000000000000000000000000000081526004016108cc906127f6565b60405180910390fd5b61091c600160008473ffffffffffffffffffffffffffffffffffffffff1673ffffffffffffffffffffffffffffffffffffffff168152602001908152602001600020611308565b9050919050565b60606007805461093290612b60565b80601f016020809104026020016040519081016040528092919081815260200182805461095e90612b60565b80156109ab5780601f10610980576101008083540402835291602001916109ab565b820191906000526020600020905b81548152906001019060200180831161098e57829003601f168201915b5050505050905090565b6109bd610ed8565b73ffffffffffffffffffffffffffffffffffffffff168273ffffffffffffffffffffffffffffffffffffffff161415610a2b576040517f08c379a0000000000000000000000000000000000000000000000000000000008152600401610a2290612796565b60405180910390fd5b8060056000610a38610ed8565b73ffffffffffffffffffffffffffffffffffffffff1673ffffffffffffffffffffffffffffffffffffffff16815260200190815260200160002060008473ffffffffffffffffffffffffffffffffffffffff1673ffffffffffffffffffffffffffffffffffffffff16815260200190815260200160002060006101000a81548160ff0219169083151502179055508173ffffffffffffffffffffffffffffffffffffffff16610ae5610ed8565b73ffffffffffffffffffffffffffffffffffffffff167f17307eab39ab6107e8899845ad3d59bd9653f200f220920489ca2b5937696c3183604051610b2a91906126f9565b60405180910390a35050565b610b47610b41610ed8565b83610fae565b610b86576040517f08c379a0000000000000000000000000000000000000000000000000000000008152600401610b7d906128b6565b60405180910390fd5b610b928484848461131d565b50505050565b600a8181548110610ba857600080fd5b906000526020600020016000915090508054610bc390612b60565b80601f0160208091040260200160405190810160405280929190818152602001828054610bef90612b60565b8015610c3c5780601f10610c1157610100808354040283529160200191610c3c565b820191906000526020600020905b815481529060010190602001808311610c1f57829003601f168201915b505050505081565b6060610c4f82610ebb565b610c8e576040517f08c379a0000000000000000000000000000000000000000000000000000000008152600401610c8590612876565b60405180910390fd5b6000600860008481526020019081526020016000208054610cae90612b60565b80601f0160208091040260200160405190810160405280929190818152602001828054610cda90612b60565b8015610d275780601f10610cfc57610100808354040283529160200191610d27565b820191906000526020600020905b815481529060010190602001808311610d0a57829003601f168201915b505050505090506000610d386107d2565b9050600081511415610d4e578192505050610db2565b600082511115610d83578082604051602001610d6b92919061266e565b60405160208183030381529060405292505050610db2565b80610d8d85611379565b604051602001610d9e92919061266e565b604051602081830303815290604052925050505b919050565b600b81604051610dc79190612657565b908152602001604051809103902060009054906101000a900460ff1615610ded57600080fd5b6001600b82604051610dff9190612657565b908152602001604051809103902060006101000a81548160ff02191690831515021790555050565b6000600560008473ffffffffffffffffffffffffffffffffffffffff1673ffffffffffffffffffffffffffffffffffffffff16815260200190815260200160002060008373ffffffffffffffffffffffffffffffffffffffff1673ffffffffffffffffffffffffffffffffffffffff16815260200190815260200160002060009054906101000a900460ff16905092915050565b6000610ed182600261152c90919063ffffffff16565b9050919050565b600033905090565b816004600083815260200190815260200160002060006101000a81548173ffffffffffffffffffffffffffffffffffffffff021916908373ffffffffffffffffffffffffffffffffffffffff160217905550808273ffffffffffffffffffffffffffffffffffffffff16610f538361079b565b73ffffffffffffffffffffffffffffffffffffffff167f8c5be1e5ebec7d5bd14f71427d1e84f3dd0314c0f7b2291e5b200ac8c7c3b92560405160405180910390a45050565b6000610fa782600001611546565b9050919050565b6000610fb982610ebb565b610ff8576040517f08c379a0000000000000000000000000000000000000000000000000000000008152600401610fef906127b6565b60405180910390fd5b60006110038361079b565b90508073ffffffffffffffffffffffffffffffffffffffff168473ffffffffffffffffffffffffffffffffffffffff16148061107257508373ffffffffffffffffffffffffffffffffffffffff1661105a846104ef565b73ffffffffffffffffffffffffffffffffffffffff16145b8061108357506110828185610e27565b5b91505092915050565b8273ffffffffffffffffffffffffffffffffffffffff166110ac8261079b565b73ffffffffffffffffffffffffffffffffffffffff1614611102576040517f08c379a00000000000000000000000000000000000000000000000000000000081526004016110f990612856565b60405180910390fd5b600073ffffffffffffffffffffffffffffffffffffffff168273ffffffffffffffffffffffffffffffffffffffff161415611172576040517f08c379a000000000000000000000000000000000000000000000000000000000815260040161116990612776565b60405180910390fd5b61117d838383611557565b611188600082610ee0565b6111d981600160008673ffffffffffffffffffffffffffffffffffffffff1673ffffffffffffffffffffffffffffffffffffffff16815260200190815260200160002061155c90919063ffffffff16565b5061122b81600160008573ffffffffffffffffffffffffffffffffffffffff1673ffffffffffffffffffffffffffffffffffffffff16815260200190815260200160002061157690919063ffffffff16565b50611242818360026115909092919063ffffffff16565b50808273ffffffffffffffffffffffffffffffffffffffff168473ffffffffffffffffffffffffffffffffffffffff167fddf252ad1be2c89b69c2b068fc378daa952ba7f163c4a11628f55a4df523b3ef60405160405180910390a4505050565b60006112b283600001836115c5565b60001c905092915050565b6000806000806112d0866000018661165f565b915091508160001c8160001c9350935050509250929050565b60006112fc846000018460001b8461170f565b60001c90509392505050565b6000611316826000016117d6565b9050919050565b61132884848461108c565b611334848484846117e7565b611373576040517f08c379a000000000000000000000000000000000000000000000000000000000815260040161136a90612756565b60405180910390fd5b50505050565b606060008214156113c1576040518060400160405280600181526020017f30000000000000000000000000000000000000000000000000000000000000008152509050611527565b600082905060005b600082146113f35780806113dc90612b92565b915050600a826113ec9190612a1b565b91506113c9565b60008167ffffffffffffffff811115611435577f4e487b7100000000000000000000000000000000000000000000000000000000600052604160045260246000fd5b6040519080825280601f01601f1916602001820160405280156114675781602001600182028036833780820191505090505b50905060008290508593505b6000841461151f57600a846114889190612bdb565b603061149491906129c5565b60f81b82826114a290612b36565b925082815181106114dc577f4e487b7100000000000000000000000000000000000000000000000000000000600052603260045260246000fd5b60200101907effffffffffffffffffffffffffffffffffffffffffffffffffffffffffffff1916908160001a905350600a846115189190612a1b565b9350611473565b819450505050505b919050565b600061153e836000018360001b61197e565b905092915050565b600081600001805490509050919050565b505050565b600061156e836000018360001b6119a1565b905092915050565b6000611588836000018360001b611b2b565b905092915050565b60006115bc846000018460001b8473ffffffffffffffffffffffffffffffffffffffff1660001b611b9b565b90509392505050565b600081836000018054905011611610576040517f08c379a000000000000000000000000000000000000000000000000000000000815260040161160790612736565b60405180910390fd5b82600001828154811061164c577f4e487b7100000000000000000000000000000000000000000000000000000000600052603260045260246000fd5b9060005260206000200154905092915050565b600080828460000180549050116116ab576040517f08c379a00000000000000000000000000000000000000000000000000000000081526004016116a290612816565b60405180910390fd5b60008460000184815481106116e9577f4e487b7100000000000000000000000000000000000000000000000000000000600052603260045260246000fd5b906000526020600020906002020190508060000154816001015492509250509250929050565b60008084600101600085815260200190815260200160002054905060008114158390611771576040517f08c379a00000000000000000000000000000000000000000000000000000000081526004016117689190612714565b60405180910390fd5b50846000016001826117839190612a4c565b815481106117ba577f4e487b7100000000000000000000000000000000000000000000000000000000600052603260045260246000fd5b9060005260206000209060020201600101549150509392505050565b600081600001805490509050919050565b60006118088473ffffffffffffffffffffffffffffffffffffffff16611cad565b15611971578373ffffffffffffffffffffffffffffffffffffffff1663150b7a02611831610ed8565b8786866040518563ffffffff1660e01b815260040161185394939291906126ad565b602060405180830381600087803b15801561186d57600080fd5b505af192505050801561189e57506040513d601f19601f8201168201806040525081019061189b9190611fec565b60015b611921573d80600081146118ce576040519150601f19603f3d011682016040523d82523d6000602084013e6118d3565b606091505b50600081511415611919576040517f08c379a000000000000000000000000000000000000000000000000000000000815260040161191090612756565b60405180910390fd5b805181602001fd5b63150b7a0260e01b7bffffffffffffffffffffffffffffffffffffffffffffffffffffffff1916817bffffffffffffffffffffffffffffffffffffffffffffffffffffffff191614915050611976565b600190505b949350505050565b600080836001016000848152602001908152602001600020541415905092915050565b60008083600101600084815260200190815260200160002054905060008114611b1f5760006001826119d39190612a4c565b90506000600186600001805490506119eb9190612a4c565b90506000866000018281548110611a2b577f4e487b7100000000000000000000000000000000000000000000000000000000600052603260045260246000fd5b9060005260206000200154905080876000018481548110611a75577f4e487b7100000000000000000000000000000000000000000000000000000000600052603260045260246000fd5b9060005260206000200181905550600183611a9091906129c5565b8760010160008381526020019081526020016000208190555086600001805480611ae3577f4e487b7100000000000000000000000000000000000000000000000000000000600052603160045260246000fd5b60019003818190600052602060002001600090559055866001016000878152602001908152602001600020600090556001945050505050611b25565b60009150505b92915050565b6000611b378383611cc0565b611b90578260000182908060018154018082558091505060019003906000526020600020016000909190919091505582600001805490508360010160008481526020019081526020016000208190555060019050611b95565b600090505b92915050565b6000808460010160008581526020019081526020016000205490506000811415611c4257846000016040518060400160405280868152602001858152509080600181540180825580915050600190039060005260206000209060020201600090919091909150600082015181600001556020820151816001015550508460000180549050856001016000868152602001908152602001600020819055506001915050611ca6565b8285600001600183611c549190612a4c565b81548110611c8b577f4e487b7100000000000000000000000000000000000000000000000000000000600052603260045260246000fd5b90600052602060002090600202016001018190555060009150505b9392505050565b600080823b905060008111915050919050565b600080836001016000848152602001908152602001600020541415905092915050565b6000611cf6611cf184612922565b6128f1565b905082815260208101848484011115611d0e57600080fd5b611d19848285612af4565b509392505050565b6000611d34611d2f84612952565b6128f1565b905082815260208101848484011115611d4c57600080fd5b611d57848285612af4565b509392505050565b600081359050611d6e81612cd9565b92915050565b600081359050611d8381612cf0565b92915050565b600081359050611d9881612d07565b92915050565b600081519050611dad81612d07565b92915050565b600082601f830112611dc457600080fd5b8135611dd4848260208601611ce3565b91505092915050565b600082601f830112611dee57600080fd5b8135611dfe848260208601611d21565b91505092915050565b600081359050611e1681612d1e565b92915050565b600060208284031215611e2e57600080fd5b6000611e3c84828501611d5f565b91505092915050565b60008060408385031215611e5857600080fd5b6000611e6685828601611d5f565b9250506020611e7785828601611d5f565b9150509250929050565b600080600060608486031215611e9657600080fd5b6000611ea486828701611d5f565b9350506020611eb586828701611d5f565b9250506040611ec686828701611e07565b9150509250925092565b60008060008060808587031215611ee657600080fd5b6000611ef487828801611d5f565b9450506020611f0587828801611d5f565b9350506040611f1687828801611e07565b925050606085013567ffffffffffffffff811115611f3357600080fd5b611f3f87828801611db3565b91505092959194509250565b60008060408385031215611f5e57600080fd5b6000611f6c85828601611d5f565b9250506020611f7d85828601611d74565b9150509250929050565b60008060408385031215611f9a57600080fd5b6000611fa885828601611d5f565b9250506020611fb985828601611e07565b9150509250929050565b600060208284031215611fd557600080fd5b6000611fe384828501611d89565b91505092915050565b600060208284031215611ffe57600080fd5b600061200c84828501611d9e565b91505092915050565b60006020828403121561202757600080fd5b600082013567ffffffffffffffff81111561204157600080fd5b61204d84828501611ddd565b91505092915050565b60006020828403121561206857600080fd5b600061207684828501611e07565b91505092915050565b61208881612a80565b82525050565b61209781612a92565b82525050565b60006120a882612982565b6120b28185612998565b93506120c2818560208601612b03565b6120cb81612cc8565b840191505092915050565b60006120e18261298d565b6120eb81856129a9565b93506120fb818560208601612b03565b61210481612cc8565b840191505092915050565b600061211a8261298d565b61212481856129ba565b9350612134818560208601612b03565b80840191505092915050565b600061214d6022836129a9565b91507f456e756d657261626c655365743a20696e646578206f7574206f6620626f756e60008301527f64730000000000000000000000000000000000000000000000000000000000006020830152604082019050919050565b60006121b36032836129a9565b91507f4552433732313a207472616e7366657220746f206e6f6e20455243373231526560008301527f63656976657220696d706c656d656e74657200000000000000000000000000006020830152604082019050919050565b60006122196024836129a9565b91507f4552433732313a207472616e7366657220746f20746865207a65726f2061646460008301527f72657373000000000000000000000000000000000000000000000000000000006020830152604082019050919050565b600061227f6019836129a9565b91507f4552433732313a20617070726f766520746f2063616c6c6572000000000000006000830152602082019050919050565b60006122bf602c836129a9565b91507f4552433732313a206f70657261746f7220717565727920666f72206e6f6e657860008301527f697374656e7420746f6b656e00000000000000000000000000000000000000006020830152604082019050919050565b60006123256038836129a9565b91507f4552433732313a20617070726f76652063616c6c6572206973206e6f74206f7760008301527f6e6572206e6f7220617070726f76656420666f7220616c6c00000000000000006020830152604082019050919050565b600061238b602a836129a9565b91507f4552433732313a2062616c616e636520717565727920666f7220746865207a6560008301527f726f2061646472657373000000000000000000000000000000000000000000006020830152604082019050919050565b60006123f16022836129a9565b91507f456e756d657261626c654d61703a20696e646578206f7574206f6620626f756e60008301527f64730000000000000000000000000000000000000000000000000000000000006020830152604082019050919050565b6000612457602c836129a9565b91507f4552433732313a20617070726f76656420717565727920666f72206e6f6e657860008301527f697374656e7420746f6b656e00000000000000000000000000000000000000006020830152604082019050919050565b60006124bd6029836129a9565b91507f4552433732313a207472616e73666572206f6620746f6b656e2074686174206960008301527f73206e6f74206f776e00000000000000000000000000000000000000000000006020830152604082019050919050565b6000612523602f836129a9565b91507f4552433732314d657461646174613a2055524920717565727920666f72206e6f60008301527f6e6578697374656e7420746f6b656e00000000000000000000000000000000006020830152604082019050919050565b60006125896021836129a9565b91507f4552433732313a20617070726f76616c20746f2063757272656e74206f776e6560008301527f72000000000000000000000000000000000000000000000000000000000000006020830152604082019050919050565b60006125ef6031836129a9565b91507f4552433732313a207472616e736665722063616c6c6572206973206e6f74206f60008301527f776e6572206e6f7220617070726f7665640000000000000000000000000000006020830152604082019050919050565b61265181612aea565b82525050565b6000612663828461210f565b915081905092915050565b600061267a828561210f565b9150612686828461210f565b91508190509392505050565b60006020820190506126a7600083018461207f565b92915050565b60006080820190506126c2600083018761207f565b6126cf602083018661207f565b6126dc6040830185612648565b81810360608301526126ee818461209d565b905095945050505050565b600060208201905061270e600083018461208e565b92915050565b6000602082019050818103600083015261272e81846120d6565b905092915050565b6000602082019050818103600083015261274f81612140565b9050919050565b6000602082019050818103600083015261276f816121a6565b9050919050565b6000602082019050818103600083015261278f8161220c565b9050919050565b600060208201905081810360008301526127af81612272565b9050919050565b600060208201905081810360008301526127cf816122b2565b9050919050565b600060208201905081810360008301526127ef81612318565b9050919050565b6000602082019050818103600083015261280f8161237e565b9050919050565b6000602082019050818103600083015261282f816123e4565b9050919050565b6000602082019050818103600083015261284f8161244a565b9050919050565b6000602082019050818103600083015261286f816124b0565b9050919050565b6000602082019050818103600083015261288f81612516565b9050919050565b600060208201905081810360008301526128af8161257c565b9050919050565b600060208201905081810360008301526128cf816125e2565b9050919050565b60006020820190506128eb6000830184612648565b92915050565b6000604051905081810181811067ffffffffffffffff8211171561291857612917612c99565b5b8060405250919050565b600067ffffffffffffffff82111561293d5761293c612c99565b5b601f19601f8301169050602081019050919050565b600067ffffffffffffffff82111561296d5761296c612c99565b5b601f19601f8301169050602081019050919050565b600081519050919050565b600081519050919050565b600082825260208201905092915050565b600082825260208201905092915050565b600081905092915050565b60006129d082612aea565b91506129db83612aea565b9250827fffffffffffffffffffffffffffffffffffffffffffffffffffffffffffffffff03821115612a1057612a0f612c0c565b5b828201905092915050565b6000612a2682612aea565b9150612a3183612aea565b925082612a4157612a40612c3b565b5b828204905092915050565b6000612a5782612aea565b9150612a6283612aea565b925082821015612a7557612a74612c0c565b5b828203905092915050565b6000612a8b82612aca565b9050919050565b60008115159050919050565b60007fffffffff0000000000000000000000000000000000000000000000000000000082169050919050565b600073ffffffffffffffffffffffffffffffffffffffff82169050919050565b6000819050919050565b82818337600083830152505050565b60005b83811015612b21578082015181840152602081019050612b06565b83811115612b30576000848401525b50505050565b6000612b4182612aea565b91506000821415612b5557612b54612c0c565b5b600182039050919050565b60006002820490506001821680612b7857607f821691505b60208210811415612b8c57612b8b612c6a565b5b50919050565b6000612b9d82612aea565b91507fffffffffffffffffffffffffffffffffffffffffffffffffffffffffffffffff821415612bd057612bcf612c0c565b5b600182019050919050565b6000612be682612aea565b9150612bf183612aea565b925082612c0157612c00612c3b565b5b828206905092915050565b7f4e487b7100000000000000000000000000000000000000000000000000000000600052601160045260246000fd5b7f4e487b7100000000000000000000000000000000000000000000000000000000600052601260045260246000fd5b7f4e487b7100000000000000000000000000000000000000000000000000000000600052602260045260246000fd5b7f4e487b7100000000000000000000000000000000000000000000000000000000600052604160045260246000fd5b6000601f19601f8301169050919050565b612ce281612a80565b8114612ced57600080fd5b50565b612cf981612a92565b8114612d0457600080fd5b50565b612d1081612a9e565b8114612d1b57600080fd5b50565b612d2781612aea565b8114612d3257600080fd5b5056fe4552433732313a206f776e657220717565727920666f72206e6f6e6578697374656e7420746f6b656ea2646970667358221220cf7725d804ea39aaf92ea259332aa5966c37a7a7ff790ee4271eff3a9dd0698864736f6c63430008000033",
  "immutableReferences": {},
  "source": "//SPDX-License-Identifier: UNLICENSED\npragma solidity <=0.8.0;\n\nimport \"@openzeppelin/contracts/token/ERC721/ERC721.sol\";\n\ncontract Color is ERC721 {\n  string[] public colors;\n  mapping(string => bool) _colorExists;\n\n  constructor() ERC721(\"Color\", \"COLOR\") {\n  }\n\n  // E.G. color = \"#FFFFFF\"\n  function mint(string memory _color) public {\n    require(!_colorExists[_color]);\n    //uint _id = colors.push(_color);\n    //_mint(msg.sender, _id);\n    _colorExists[_color] = true;\n  }\n\n}\n",
  "sourcePath": "C:/Users/Axel/Documents/Cours/Supinfo/Msc2/5BLOC/PROJET/src/contracts/Color.sol",
  "compiler": {
    "name": "solc",
    "version": "0.8.0+commit.c7dfd78e.Emscripten.clang"
  },
  "schemaVersion": "3.3.3",
  "updatedAt": "2021-02-10T09:14:39.654Z",
  "networkType": "ethereum",
  "devdoc": {
    "kind": "dev",
    "methods": {
      "approve(address,uint256)": {
        "details": "See {IERC721-approve}."
      },
      "balanceOf(address)": {
        "details": "See {IERC721-balanceOf}."
      },
      "baseURI()": {
        "details": "Returns the base URI set via {_setBaseURI}. This will be automatically added as a prefix in {tokenURI} to each token's URI, or to the token ID if no specific URI is set for that token ID."
      },
      "getApproved(uint256)": {
        "details": "See {IERC721-getApproved}."
      },
      "isApprovedForAll(address,address)": {
        "details": "See {IERC721-isApprovedForAll}."
      },
      "name()": {
        "details": "See {IERC721Metadata-name}."
      },
      "ownerOf(uint256)": {
        "details": "See {IERC721-ownerOf}."
      },
      "safeTransferFrom(address,address,uint256)": {
        "details": "See {IERC721-safeTransferFrom}."
      },
      "safeTransferFrom(address,address,uint256,bytes)": {
        "details": "See {IERC721-safeTransferFrom}."
      },
      "setApprovalForAll(address,bool)": {
        "details": "See {IERC721-setApprovalForAll}."
      },
      "supportsInterface(bytes4)": {
        "details": "See {IERC165-supportsInterface}. Time complexity O(1), guaranteed to always use less than 30 000 gas."
      },
      "symbol()": {
        "details": "See {IERC721Metadata-symbol}."
      },
      "tokenByIndex(uint256)": {
        "details": "See {IERC721Enumerable-tokenByIndex}."
      },
      "tokenOfOwnerByIndex(address,uint256)": {
        "details": "See {IERC721Enumerable-tokenOfOwnerByIndex}."
      },
      "tokenURI(uint256)": {
        "details": "See {IERC721Metadata-tokenURI}."
      },
      "totalSupply()": {
        "details": "See {IERC721Enumerable-totalSupply}."
      },
      "transferFrom(address,address,uint256)": {
        "details": "See {IERC721-transferFrom}."
      }
    },
    "version": 1
  },
  "userdoc": {
    "kind": "user",
    "methods": {},
    "version": 1
  }
}